{
	"6_ArrayAndStruct.sol": {
		"StructTypes": {
			"abi": [
				{
					"inputs": [],
					"name": "initStudent1",
					"outputs": [],
					"stateMutability": "nonpayable",
					"type": "function"
				},
				{
					"inputs": [],
					"name": "initStudent2",
					"outputs": [],
					"stateMutability": "nonpayable",
					"type": "function"
				},
				{
					"inputs": [],
					"name": "initStudent3",
					"outputs": [],
					"stateMutability": "nonpayable",
					"type": "function"
				},
				{
					"inputs": [],
					"name": "initStudent4",
					"outputs": [],
					"stateMutability": "nonpayable",
					"type": "function"
				}
			],
			"devdoc": {
				"kind": "dev",
				"methods": {},
				"version": 1
			},
			"evm": {
				"assembly": "    /* \"6_ArrayAndStruct.sol\":889:1753  contract StructTypes {... */\n  mstore(0x40, 0x80)\n  callvalue\n  dup1\n  iszero\n  tag_1\n  jumpi\n  0x00\n  dup1\n  revert\ntag_1:\n  pop\n  dataSize(sub_0)\n  dup1\n  dataOffset(sub_0)\n  0x00\n  codecopy\n  0x00\n  return\nstop\n\nsub_0: assembly {\n        /* \"6_ArrayAndStruct.sol\":889:1753  contract StructTypes {... */\n      mstore(0x40, 0x80)\n      callvalue\n      dup1\n      iszero\n      tag_1\n      jumpi\n      0x00\n      dup1\n      revert\n    tag_1:\n      pop\n      jumpi(tag_2, lt(calldatasize, 0x04))\n      shr(0xe0, calldataload(0x00))\n      dup1\n      0x1a8d7dc3\n      eq\n      tag_3\n      jumpi\n      dup1\n      0x5a4236b1\n      eq\n      tag_4\n      jumpi\n      dup1\n      0x9ebb8d20\n      eq\n      tag_5\n      jumpi\n      dup1\n      0xa8b63e6f\n      eq\n      tag_6\n      jumpi\n    tag_2:\n      0x00\n      dup1\n      revert\n        /* \"6_ArrayAndStruct.sol\":1427:1518  function initStudent2() external{... */\n    tag_3:\n      tag_7\n      tag_8\n      jump\t// in\n    tag_7:\n      stop\n        /* \"6_ArrayAndStruct.sol\":1559:1633  function initStudent3() external {... */\n    tag_4:\n      tag_9\n      tag_10\n      jump\t// in\n    tag_9:\n      stop\n        /* \"6_ArrayAndStruct.sol\":1664:1751  function initStudent4() external {... */\n    tag_5:\n      tag_11\n      tag_12\n      jump\t// in\n    tag_11:\n      stop\n        /* \"6_ArrayAndStruct.sol\":1152:1372  function initStudent1() external{... */\n    tag_6:\n      tag_13\n      tag_14\n      jump\t// in\n    tag_13:\n      stop\n        /* \"6_ArrayAndStruct.sol\":1427:1518  function initStudent2() external{... */\n    tag_8:\n        /* \"6_ArrayAndStruct.sol\":1482:1483  1 */\n      0x01\n        /* \"6_ArrayAndStruct.sol\":1469:1476  student */\n      0x00\n        /* \"6_ArrayAndStruct.sol\":1469:1479  student.id */\n      dup1\n      add\n        /* \"6_ArrayAndStruct.sol\":1469:1483  student.id = 1 */\n      dup2\n      swap1\n      sstore\n      pop\n        /* \"6_ArrayAndStruct.sol\":1509:1511  80 */\n      0x50\n        /* \"6_ArrayAndStruct.sol\":1493:1500  student */\n      0x00\n        /* \"6_ArrayAndStruct.sol\":1493:1506  student.score */\n      0x01\n      add\n        /* \"6_ArrayAndStruct.sol\":1493:1511  student.score = 80 */\n      dup2\n      swap1\n      sstore\n      pop\n        /* \"6_ArrayAndStruct.sol\":1427:1518  function initStudent2() external{... */\n      jump\t// out\n        /* \"6_ArrayAndStruct.sol\":1559:1633  function initStudent3() external {... */\n    tag_10:\n        /* \"6_ArrayAndStruct.sol\":1612:1626  Student(3, 90) */\n      mload(0x40)\n      dup1\n      0x40\n      add\n      0x40\n      mstore\n      dup1\n        /* \"6_ArrayAndStruct.sol\":1620:1621  3 */\n      0x03\n        /* \"6_ArrayAndStruct.sol\":1612:1626  Student(3, 90) */\n      dup2\n      mstore\n      0x20\n      add\n        /* \"6_ArrayAndStruct.sol\":1623:1625  90 */\n      0x5a\n        /* \"6_ArrayAndStruct.sol\":1612:1626  Student(3, 90) */\n      dup2\n      mstore\n      pop\n        /* \"6_ArrayAndStruct.sol\":1602:1609  student */\n      0x00\n        /* \"6_ArrayAndStruct.sol\":1602:1626  student = Student(3, 90) */\n      dup1\n      dup3\n      add\n      mload\n      dup2\n      0x00\n      add\n      sstore\n      0x20\n      dup3\n      add\n      mload\n      dup2\n      0x01\n      add\n      sstore\n      swap1\n      pop\n      pop\n        /* \"6_ArrayAndStruct.sol\":1559:1633  function initStudent3() external {... */\n      jump\t// out\n        /* \"6_ArrayAndStruct.sol\":1664:1751  function initStudent4() external {... */\n    tag_12:\n        /* \"6_ArrayAndStruct.sol\":1717:1744  Student({id: 4, score: 60}) */\n      mload(0x40)\n      dup1\n      0x40\n      add\n      0x40\n      mstore\n      dup1\n        /* \"6_ArrayAndStruct.sol\":1730:1731  4 */\n      0x04\n        /* \"6_ArrayAndStruct.sol\":1717:1744  Student({id: 4, score: 60}) */\n      dup2\n      mstore\n      0x20\n      add\n        /* \"6_ArrayAndStruct.sol\":1740:1742  60 */\n      0x3c\n        /* \"6_ArrayAndStruct.sol\":1717:1744  Student({id: 4, score: 60}) */\n      dup2\n      mstore\n      pop\n        /* \"6_ArrayAndStruct.sol\":1707:1714  student */\n      0x00\n        /* \"6_ArrayAndStruct.sol\":1707:1744  student = Student({id: 4, score: 60}) */\n      dup1\n      dup3\n      add\n      mload\n      dup2\n      0x00\n      add\n      sstore\n      0x20\n      dup3\n      add\n      mload\n      dup2\n      0x01\n      add\n      sstore\n      swap1\n      pop\n      pop\n        /* \"6_ArrayAndStruct.sol\":1664:1751  function initStudent4() external {... */\n      jump\t// out\n        /* \"6_ArrayAndStruct.sol\":1152:1372  function initStudent1() external{... */\n    tag_14:\n        /* \"6_ArrayAndStruct.sol\":1207:1209  10 */\n      0x0a\n        /* \"6_ArrayAndStruct.sol\":1194:1201  student */\n      0x00\n        /* \"6_ArrayAndStruct.sol\":1194:1204  student.id */\n      dup1\n      add\n        /* \"6_ArrayAndStruct.sol\":1194:1209  student.id = 10 */\n      dup2\n      swap1\n      sstore\n      pop\n        /* \"6_ArrayAndStruct.sol\":1235:1237  50 */\n      0x32\n        /* \"6_ArrayAndStruct.sol\":1219:1226  student */\n      0x00\n        /* \"6_ArrayAndStruct.sol\":1219:1232  student.score */\n      0x01\n      add\n        /* \"6_ArrayAndStruct.sol\":1219:1237  student.score = 50 */\n      dup2\n      swap1\n      sstore\n      pop\n        /* \"6_ArrayAndStruct.sol\":1247:1271  Student storage _student */\n      0x00\n        /* \"6_ArrayAndStruct.sol\":1333:1335  11 */\n      0x0b\n        /* \"6_ArrayAndStruct.sol\":1319:1327  _student */\n      dup2\n        /* \"6_ArrayAndStruct.sol\":1319:1330  _student.id */\n      0x00\n      add\n        /* \"6_ArrayAndStruct.sol\":1319:1335  _student.id = 11 */\n      dup2\n      swap1\n      sstore\n      pop\n        /* \"6_ArrayAndStruct.sol\":1362:1365  100 */\n      0x64\n        /* \"6_ArrayAndStruct.sol\":1345:1353  _student */\n      dup2\n        /* \"6_ArrayAndStruct.sol\":1345:1359  _student.score */\n      0x01\n      add\n        /* \"6_ArrayAndStruct.sol\":1345:1365  _student.score = 100 */\n      dup2\n      swap1\n      sstore\n      pop\n        /* \"6_ArrayAndStruct.sol\":1184:1372  {... */\n      pop\n        /* \"6_ArrayAndStruct.sol\":1152:1372  function initStudent1() external{... */\n      jump\t// out\n\n    auxdata: 0xa264697066735822122036c232b829c715d726bc744e4630448ad49d8e588266363c822b5882b59e33de64736f6c634300081a0033\n}\n",
				"bytecode": {
					"linkReferences": {},
					"object": "6080604052348015600e575f80fd5b506101498061001c5f395ff3fe608060405234801561000f575f80fd5b506004361061004a575f3560e01c80631a8d7dc31461004e5780635a4236b1146100585780639ebb8d2014610062578063a8b63e6f1461006c575b5f80fd5b610056610076565b005b61006061008b565b005b61006a6100ba565b005b6100746100e9565b005b60015f80018190555060505f60010181905550565b604051806040016040528060038152602001605a8152505f80820151815f015560208201518160010155905050565b604051806040016040528060048152602001603c8152505f80820151815f015560208201518160010155905050565b600a5f80018190555060325f600101819055505f600b815f0181905550606481600101819055505056fea264697066735822122036c232b829c715d726bc744e4630448ad49d8e588266363c822b5882b59e33de64736f6c634300081a0033",
					"opcodes": "PUSH1 0x80 PUSH1 0x40 MSTORE CALLVALUE DUP1 ISZERO PUSH1 0xE JUMPI PUSH0 DUP1 REVERT JUMPDEST POP PUSH2 0x149 DUP1 PUSH2 0x1C PUSH0 CODECOPY PUSH0 RETURN INVALID PUSH1 0x80 PUSH1 0x40 MSTORE CALLVALUE DUP1 ISZERO PUSH2 0xF JUMPI PUSH0 DUP1 REVERT JUMPDEST POP PUSH1 0x4 CALLDATASIZE LT PUSH2 0x4A JUMPI PUSH0 CALLDATALOAD PUSH1 0xE0 SHR DUP1 PUSH4 0x1A8D7DC3 EQ PUSH2 0x4E JUMPI DUP1 PUSH4 0x5A4236B1 EQ PUSH2 0x58 JUMPI DUP1 PUSH4 0x9EBB8D20 EQ PUSH2 0x62 JUMPI DUP1 PUSH4 0xA8B63E6F EQ PUSH2 0x6C JUMPI JUMPDEST PUSH0 DUP1 REVERT JUMPDEST PUSH2 0x56 PUSH2 0x76 JUMP JUMPDEST STOP JUMPDEST PUSH2 0x60 PUSH2 0x8B JUMP JUMPDEST STOP JUMPDEST PUSH2 0x6A PUSH2 0xBA JUMP JUMPDEST STOP JUMPDEST PUSH2 0x74 PUSH2 0xE9 JUMP JUMPDEST STOP JUMPDEST PUSH1 0x1 PUSH0 DUP1 ADD DUP2 SWAP1 SSTORE POP PUSH1 0x50 PUSH0 PUSH1 0x1 ADD DUP2 SWAP1 SSTORE POP JUMP JUMPDEST PUSH1 0x40 MLOAD DUP1 PUSH1 0x40 ADD PUSH1 0x40 MSTORE DUP1 PUSH1 0x3 DUP2 MSTORE PUSH1 0x20 ADD PUSH1 0x5A DUP2 MSTORE POP PUSH0 DUP1 DUP3 ADD MLOAD DUP2 PUSH0 ADD SSTORE PUSH1 0x20 DUP3 ADD MLOAD DUP2 PUSH1 0x1 ADD SSTORE SWAP1 POP POP JUMP JUMPDEST PUSH1 0x40 MLOAD DUP1 PUSH1 0x40 ADD PUSH1 0x40 MSTORE DUP1 PUSH1 0x4 DUP2 MSTORE PUSH1 0x20 ADD PUSH1 0x3C DUP2 MSTORE POP PUSH0 DUP1 DUP3 ADD MLOAD DUP2 PUSH0 ADD SSTORE PUSH1 0x20 DUP3 ADD MLOAD DUP2 PUSH1 0x1 ADD SSTORE SWAP1 POP POP JUMP JUMPDEST PUSH1 0xA PUSH0 DUP1 ADD DUP2 SWAP1 SSTORE POP PUSH1 0x32 PUSH0 PUSH1 0x1 ADD DUP2 SWAP1 SSTORE POP PUSH0 PUSH1 0xB DUP2 PUSH0 ADD DUP2 SWAP1 SSTORE POP PUSH1 0x64 DUP2 PUSH1 0x1 ADD DUP2 SWAP1 SSTORE POP POP JUMP INVALID LOG2 PUSH5 0x6970667358 0x22 SLT KECCAK256 CALLDATASIZE 0xC2 ORIGIN 0xB8 0x29 0xC7 ISZERO 0xD7 0x26 0xBC PUSH21 0x4E4630448AD49D8E588266363C822B5882B59E33DE PUSH5 0x736F6C6343 STOP ADDMOD BYTE STOP CALLER "
				},
				"gasEstimates": {
					"creation": {
						"codeDepositCost": "65800",
						"executionCost": "115",
						"totalCost": "65915"
					},
					"external": {
						"initStudent1()": "54468",
						"initStudent2()": "44359",
						"initStudent3()": "44452",
						"initStudent4()": "44474"
					}
				},
				"methodIdentifiers": {
					"initStudent1()": "a8b63e6f",
					"initStudent2()": "1a8d7dc3",
					"initStudent3()": "5a4236b1",
					"initStudent4()": "9ebb8d20"
				}
			},
			"storageLayout": {
				"storage": [
					{
						"astId": 9,
						"contract": "6_ArrayAndStruct.sol:StructTypes",
						"label": "student",
						"offset": 0,
						"slot": "0",
						"type": "t_struct(Student)6_storage"
					}
				],
				"types": {
					"t_struct(Student)6_storage": {
						"encoding": "inplace",
						"label": "struct StructTypes.Student",
						"members": [
							{
								"astId": 3,
								"contract": "6_ArrayAndStruct.sol:StructTypes",
								"label": "id",
								"offset": 0,
								"slot": "0",
								"type": "t_uint256"
							},
							{
								"astId": 5,
								"contract": "6_ArrayAndStruct.sol:StructTypes",
								"label": "score",
								"offset": 0,
								"slot": "1",
								"type": "t_uint256"
							}
						],
						"numberOfBytes": "64"
					},
					"t_uint256": {
						"encoding": "inplace",
						"label": "uint256",
						"numberOfBytes": "32"
					}
				}
			},
			"userdoc": {
				"kind": "user",
				"methods": {},
				"version": 1
			}
		}
	}
}