{
	"7_FlowControl.sol": {
		"InsertSort": {
			"abi": [
				{
					"inputs": [
						{
							"internalType": "uint256[]",
							"name": "a",
							"type": "uint256[]"
						}
					],
					"name": "insertSort",
					"outputs": [
						{
							"internalType": "uint256[]",
							"name": "",
							"type": "uint256[]"
						}
					],
					"stateMutability": "pure",
					"type": "function"
				}
			],
			"devdoc": {
				"kind": "dev",
				"methods": {},
				"version": 1
			},
			"evm": {
				"assembly": "    /* \"7_FlowControl.sol\":58:432  contract InsertSort{... */\n  mstore(0x40, 0x80)\n  callvalue\n  dup1\n  iszero\n  tag_1\n  jumpi\n  0x00\n  dup1\n  revert\ntag_1:\n  pop\n  dataSize(sub_0)\n  dup1\n  dataOffset(sub_0)\n  0x00\n  codecopy\n  0x00\n  return\nstop\n\nsub_0: assembly {\n        /* \"7_FlowControl.sol\":58:432  contract InsertSort{... */\n      mstore(0x40, 0x80)\n      callvalue\n      dup1\n      iszero\n      tag_1\n      jumpi\n      0x00\n      dup1\n      revert\n    tag_1:\n      pop\n      jumpi(tag_2, lt(calldatasize, 0x04))\n      shr(0xe0, calldataload(0x00))\n      dup1\n      0xb23d97f2\n      eq\n      tag_3\n      jumpi\n    tag_2:\n      0x00\n      dup1\n      revert\n        /* \"7_FlowControl.sol\":84:429  function insertSort(uint[] memory a) public pure returns (uint[] memory){... */\n    tag_3:\n      tag_4\n      0x04\n      dup1\n      calldatasize\n      sub\n      dup2\n      add\n      swap1\n      tag_5\n      swap2\n      swap1\n      tag_6\n      jump\t// in\n    tag_5:\n      tag_7\n      jump\t// in\n    tag_4:\n      mload(0x40)\n      tag_8\n      swap2\n      swap1\n      tag_9\n      jump\t// in\n    tag_8:\n      mload(0x40)\n      dup1\n      swap2\n      sub\n      swap1\n      return\n    tag_7:\n        /* \"7_FlowControl.sol\":142:155  uint[] memory */\n      0x60\n        /* \"7_FlowControl.sol\":170:176  uint i */\n      0x00\n        /* \"7_FlowControl.sol\":179:180  1 */\n      0x01\n        /* \"7_FlowControl.sol\":170:180  uint i = 1 */\n      swap1\n      pop\n        /* \"7_FlowControl.sol\":166:403  for(uint i = 1; i < a.length;i++){... */\n    tag_11:\n        /* \"7_FlowControl.sol\":186:187  a */\n      dup3\n        /* \"7_FlowControl.sol\":186:194  a.length */\n      mload\n        /* \"7_FlowControl.sol\":182:183  i */\n      dup2\n        /* \"7_FlowControl.sol\":182:194  i < a.length */\n      lt\n        /* \"7_FlowControl.sol\":166:403  for(uint i = 1; i < a.length;i++){... */\n      iszero\n      tag_12\n      jumpi\n        /* \"7_FlowControl.sol\":213:222  uint temp */\n      0x00\n        /* \"7_FlowControl.sol\":225:226  a */\n      dup4\n        /* \"7_FlowControl.sol\":227:228  i */\n      dup3\n        /* \"7_FlowControl.sol\":225:229  a[i] */\n      dup2\n      mload\n      dup2\n      lt\n      tag_14\n      jumpi\n      tag_15\n      tag_16\n      jump\t// in\n    tag_15:\n    tag_14:\n      0x20\n      mul\n      0x20\n      add\n      add\n      mload\n        /* \"7_FlowControl.sol\":213:229  uint temp = a[i] */\n      swap1\n      pop\n        /* \"7_FlowControl.sol\":243:249  uint j */\n      0x00\n        /* \"7_FlowControl.sol\":252:253  i */\n      dup3\n        /* \"7_FlowControl.sol\":243:253  uint j = i */\n      swap1\n      pop\n        /* \"7_FlowControl.sol\":267:368  while ((j >=1) && (temp < a[j-1])){... */\n    tag_17:\n        /* \"7_FlowControl.sol\":279:280  1 */\n      0x01\n        /* \"7_FlowControl.sol\":275:276  j */\n      dup2\n        /* \"7_FlowControl.sol\":275:280  j >=1 */\n      lt\n      iszero\n        /* \"7_FlowControl.sol\":274:300  (j >=1) && (temp < a[j-1]) */\n      dup1\n      iszero\n      tag_19\n      jumpi\n      pop\n        /* \"7_FlowControl.sol\":293:294  a */\n      dup5\n        /* \"7_FlowControl.sol\":297:298  1 */\n      0x01\n        /* \"7_FlowControl.sol\":295:296  j */\n      dup3\n        /* \"7_FlowControl.sol\":295:298  j-1 */\n      tag_20\n      swap2\n      swap1\n      tag_21\n      jump\t// in\n    tag_20:\n        /* \"7_FlowControl.sol\":293:299  a[j-1] */\n      dup2\n      mload\n      dup2\n      lt\n      tag_22\n      jumpi\n      tag_23\n      tag_16\n      jump\t// in\n    tag_23:\n    tag_22:\n      0x20\n      mul\n      0x20\n      add\n      add\n      mload\n        /* \"7_FlowControl.sol\":286:290  temp */\n      dup3\n        /* \"7_FlowControl.sol\":286:299  temp < a[j-1] */\n      lt\n        /* \"7_FlowControl.sol\":274:300  (j >=1) && (temp < a[j-1]) */\n    tag_19:\n        /* \"7_FlowControl.sol\":267:368  while ((j >=1) && (temp < a[j-1])){... */\n      iszero\n      tag_18\n      jumpi\n        /* \"7_FlowControl.sol\":326:327  a */\n      dup5\n        /* \"7_FlowControl.sol\":330:331  1 */\n      0x01\n        /* \"7_FlowControl.sol\":328:329  j */\n      dup3\n        /* \"7_FlowControl.sol\":328:331  j-1 */\n      tag_24\n      swap2\n      swap1\n      tag_21\n      jump\t// in\n    tag_24:\n        /* \"7_FlowControl.sol\":326:332  a[j-1] */\n      dup2\n      mload\n      dup2\n      lt\n      tag_25\n      jumpi\n      tag_26\n      tag_16\n      jump\t// in\n    tag_26:\n    tag_25:\n      0x20\n      mul\n      0x20\n      add\n      add\n      mload\n        /* \"7_FlowControl.sol\":319:320  a */\n      dup6\n        /* \"7_FlowControl.sol\":321:322  j */\n      dup3\n        /* \"7_FlowControl.sol\":319:323  a[j] */\n      dup2\n      mload\n      dup2\n      lt\n      tag_27\n      jumpi\n      tag_28\n      tag_16\n      jump\t// in\n    tag_28:\n    tag_27:\n      0x20\n      mul\n      0x20\n      add\n      add\n        /* \"7_FlowControl.sol\":319:332  a[j] = a[j-1] */\n      dup2\n      dup2\n      mstore\n      pop\n      pop\n        /* \"7_FlowControl.sol\":350:353  j-- */\n      dup1\n      dup1\n      tag_29\n      swap1\n      tag_30\n      jump\t// in\n    tag_29:\n      swap2\n      pop\n      pop\n        /* \"7_FlowControl.sol\":267:368  while ((j >=1) && (temp < a[j-1])){... */\n      jump(tag_17)\n    tag_18:\n        /* \"7_FlowControl.sol\":388:392  temp */\n      dup2\n        /* \"7_FlowControl.sol\":381:382  a */\n      dup6\n        /* \"7_FlowControl.sol\":383:384  j */\n      dup3\n        /* \"7_FlowControl.sol\":381:385  a[j] */\n      dup2\n      mload\n      dup2\n      lt\n      tag_31\n      jumpi\n      tag_32\n      tag_16\n      jump\t// in\n    tag_32:\n    tag_31:\n      0x20\n      mul\n      0x20\n      add\n      add\n        /* \"7_FlowControl.sol\":381:392  a[j] = temp */\n      dup2\n      dup2\n      mstore\n      pop\n      pop\n        /* \"7_FlowControl.sol\":199:403  {... */\n      pop\n      pop\n        /* \"7_FlowControl.sol\":195:198  i++ */\n      dup1\n      dup1\n      0x01\n      add\n      swap2\n      pop\n      pop\n        /* \"7_FlowControl.sol\":166:403  for(uint i = 1; i < a.length;i++){... */\n      jump(tag_11)\n    tag_12:\n      pop\n        /* \"7_FlowControl.sol\":420:421  a */\n      dup2\n        /* \"7_FlowControl.sol\":412:422  return (a) */\n      swap1\n      pop\n        /* \"7_FlowControl.sol\":84:429  function insertSort(uint[] memory a) public pure returns (uint[] memory){... */\n      swap2\n      swap1\n      pop\n      jump\t// out\n        /* \"#utility.yul\":7:82   */\n    tag_33:\n        /* \"#utility.yul\":40:46   */\n      0x00\n        /* \"#utility.yul\":73:75   */\n      0x40\n        /* \"#utility.yul\":67:76   */\n      mload\n        /* \"#utility.yul\":57:76   */\n      swap1\n      pop\n        /* \"#utility.yul\":7:82   */\n      swap1\n      jump\t// out\n        /* \"#utility.yul\":88:205   */\n    tag_34:\n        /* \"#utility.yul\":197:198   */\n      0x00\n        /* \"#utility.yul\":194:195   */\n      dup1\n        /* \"#utility.yul\":187:199   */\n      revert\n        /* \"#utility.yul\":211:328   */\n    tag_35:\n        /* \"#utility.yul\":320:321   */\n      0x00\n        /* \"#utility.yul\":317:318   */\n      dup1\n        /* \"#utility.yul\":310:322   */\n      revert\n        /* \"#utility.yul\":334:451   */\n    tag_36:\n        /* \"#utility.yul\":443:444   */\n      0x00\n        /* \"#utility.yul\":440:441   */\n      dup1\n        /* \"#utility.yul\":433:445   */\n      revert\n        /* \"#utility.yul\":457:559   */\n    tag_37:\n        /* \"#utility.yul\":498:504   */\n      0x00\n        /* \"#utility.yul\":549:551   */\n      0x1f\n        /* \"#utility.yul\":545:552   */\n      not\n        /* \"#utility.yul\":540:542   */\n      0x1f\n        /* \"#utility.yul\":533:538   */\n      dup4\n        /* \"#utility.yul\":529:543   */\n      add\n        /* \"#utility.yul\":525:553   */\n      and\n        /* \"#utility.yul\":515:553   */\n      swap1\n      pop\n        /* \"#utility.yul\":457:559   */\n      swap2\n      swap1\n      pop\n      jump\t// out\n        /* \"#utility.yul\":565:745   */\n    tag_38:\n        /* \"#utility.yul\":613:690   */\n      0x4e487b7100000000000000000000000000000000000000000000000000000000\n        /* \"#utility.yul\":610:611   */\n      0x00\n        /* \"#utility.yul\":603:691   */\n      mstore\n        /* \"#utility.yul\":710:714   */\n      0x41\n        /* \"#utility.yul\":707:708   */\n      0x04\n        /* \"#utility.yul\":700:715   */\n      mstore\n        /* \"#utility.yul\":734:738   */\n      0x24\n        /* \"#utility.yul\":731:732   */\n      0x00\n        /* \"#utility.yul\":724:739   */\n      revert\n        /* \"#utility.yul\":751:1032   */\n    tag_39:\n        /* \"#utility.yul\":834:861   */\n      tag_64\n        /* \"#utility.yul\":856:860   */\n      dup3\n        /* \"#utility.yul\":834:861   */\n      tag_37\n      jump\t// in\n    tag_64:\n        /* \"#utility.yul\":826:832   */\n      dup2\n        /* \"#utility.yul\":822:862   */\n      add\n        /* \"#utility.yul\":964:970   */\n      dup2\n        /* \"#utility.yul\":952:962   */\n      dup2\n        /* \"#utility.yul\":949:971   */\n      lt\n        /* \"#utility.yul\":928:946   */\n      0xffffffffffffffff\n        /* \"#utility.yul\":916:926   */\n      dup3\n        /* \"#utility.yul\":913:947   */\n      gt\n        /* \"#utility.yul\":910:972   */\n      or\n        /* \"#utility.yul\":907:995   */\n      iszero\n      tag_65\n      jumpi\n        /* \"#utility.yul\":975:993   */\n      tag_66\n      tag_38\n      jump\t// in\n    tag_66:\n        /* \"#utility.yul\":907:995   */\n    tag_65:\n        /* \"#utility.yul\":1015:1025   */\n      dup1\n        /* \"#utility.yul\":1011:1013   */\n      0x40\n        /* \"#utility.yul\":1004:1026   */\n      mstore\n        /* \"#utility.yul\":794:1032   */\n      pop\n        /* \"#utility.yul\":751:1032   */\n      pop\n      pop\n      jump\t// out\n        /* \"#utility.yul\":1038:1167   */\n    tag_40:\n        /* \"#utility.yul\":1072:1078   */\n      0x00\n        /* \"#utility.yul\":1099:1119   */\n      tag_68\n      tag_33\n      jump\t// in\n    tag_68:\n        /* \"#utility.yul\":1089:1119   */\n      swap1\n      pop\n        /* \"#utility.yul\":1128:1161   */\n      tag_69\n        /* \"#utility.yul\":1156:1160   */\n      dup3\n        /* \"#utility.yul\":1148:1154   */\n      dup3\n        /* \"#utility.yul\":1128:1161   */\n      tag_39\n      jump\t// in\n    tag_69:\n        /* \"#utility.yul\":1038:1167   */\n      swap2\n      swap1\n      pop\n      jump\t// out\n        /* \"#utility.yul\":1173:1484   */\n    tag_41:\n        /* \"#utility.yul\":1250:1254   */\n      0x00\n        /* \"#utility.yul\":1340:1358   */\n      0xffffffffffffffff\n        /* \"#utility.yul\":1332:1338   */\n      dup3\n        /* \"#utility.yul\":1329:1359   */\n      gt\n        /* \"#utility.yul\":1326:1382   */\n      iszero\n      tag_71\n      jumpi\n        /* \"#utility.yul\":1362:1380   */\n      tag_72\n      tag_38\n      jump\t// in\n    tag_72:\n        /* \"#utility.yul\":1326:1382   */\n    tag_71:\n        /* \"#utility.yul\":1412:1416   */\n      0x20\n        /* \"#utility.yul\":1404:1410   */\n      dup3\n        /* \"#utility.yul\":1400:1417   */\n      mul\n        /* \"#utility.yul\":1392:1417   */\n      swap1\n      pop\n        /* \"#utility.yul\":1472:1476   */\n      0x20\n        /* \"#utility.yul\":1466:1470   */\n      dup2\n        /* \"#utility.yul\":1462:1477   */\n      add\n        /* \"#utility.yul\":1454:1477   */\n      swap1\n      pop\n        /* \"#utility.yul\":1173:1484   */\n      swap2\n      swap1\n      pop\n      jump\t// out\n        /* \"#utility.yul\":1490:1607   */\n    tag_42:\n        /* \"#utility.yul\":1599:1600   */\n      0x00\n        /* \"#utility.yul\":1596:1597   */\n      dup1\n        /* \"#utility.yul\":1589:1601   */\n      revert\n        /* \"#utility.yul\":1613:1690   */\n    tag_43:\n        /* \"#utility.yul\":1650:1657   */\n      0x00\n        /* \"#utility.yul\":1679:1684   */\n      dup2\n        /* \"#utility.yul\":1668:1684   */\n      swap1\n      pop\n        /* \"#utility.yul\":1613:1690   */\n      swap2\n      swap1\n      pop\n      jump\t// out\n        /* \"#utility.yul\":1696:1818   */\n    tag_44:\n        /* \"#utility.yul\":1769:1793   */\n      tag_76\n        /* \"#utility.yul\":1787:1792   */\n      dup2\n        /* \"#utility.yul\":1769:1793   */\n      tag_43\n      jump\t// in\n    tag_76:\n        /* \"#utility.yul\":1762:1767   */\n      dup2\n        /* \"#utility.yul\":1759:1794   */\n      eq\n        /* \"#utility.yul\":1749:1812   */\n      tag_77\n      jumpi\n        /* \"#utility.yul\":1808:1809   */\n      0x00\n        /* \"#utility.yul\":1805:1806   */\n      dup1\n        /* \"#utility.yul\":1798:1810   */\n      revert\n        /* \"#utility.yul\":1749:1812   */\n    tag_77:\n        /* \"#utility.yul\":1696:1818   */\n      pop\n      jump\t// out\n        /* \"#utility.yul\":1824:1963   */\n    tag_45:\n        /* \"#utility.yul\":1870:1875   */\n      0x00\n        /* \"#utility.yul\":1908:1914   */\n      dup2\n        /* \"#utility.yul\":1895:1915   */\n      calldataload\n        /* \"#utility.yul\":1886:1915   */\n      swap1\n      pop\n        /* \"#utility.yul\":1924:1957   */\n      tag_79\n        /* \"#utility.yul\":1951:1956   */\n      dup2\n        /* \"#utility.yul\":1924:1957   */\n      tag_44\n      jump\t// in\n    tag_79:\n        /* \"#utility.yul\":1824:1963   */\n      swap3\n      swap2\n      pop\n      pop\n      jump\t// out\n        /* \"#utility.yul\":1986:2696   */\n    tag_46:\n        /* \"#utility.yul\":2082:2087   */\n      0x00\n        /* \"#utility.yul\":2107:2188   */\n      tag_81\n        /* \"#utility.yul\":2123:2187   */\n      tag_82\n        /* \"#utility.yul\":2180:2186   */\n      dup5\n        /* \"#utility.yul\":2123:2187   */\n      tag_41\n      jump\t// in\n    tag_82:\n        /* \"#utility.yul\":2107:2188   */\n      tag_40\n      jump\t// in\n    tag_81:\n        /* \"#utility.yul\":2098:2188   */\n      swap1\n      pop\n        /* \"#utility.yul\":2208:2213   */\n      dup1\n        /* \"#utility.yul\":2237:2243   */\n      dup4\n        /* \"#utility.yul\":2230:2235   */\n      dup3\n        /* \"#utility.yul\":2223:2244   */\n      mstore\n        /* \"#utility.yul\":2271:2275   */\n      0x20\n        /* \"#utility.yul\":2264:2269   */\n      dup3\n        /* \"#utility.yul\":2260:2276   */\n      add\n        /* \"#utility.yul\":2253:2276   */\n      swap1\n      pop\n        /* \"#utility.yul\":2324:2328   */\n      0x20\n        /* \"#utility.yul\":2316:2322   */\n      dup5\n        /* \"#utility.yul\":2312:2329   */\n      mul\n        /* \"#utility.yul\":2304:2310   */\n      dup4\n        /* \"#utility.yul\":2300:2330   */\n      add\n        /* \"#utility.yul\":2353:2356   */\n      dup6\n        /* \"#utility.yul\":2345:2351   */\n      dup2\n        /* \"#utility.yul\":2342:2357   */\n      gt\n        /* \"#utility.yul\":2339:2461   */\n      iszero\n      tag_83\n      jumpi\n        /* \"#utility.yul\":2372:2451   */\n      tag_84\n      tag_42\n      jump\t// in\n    tag_84:\n        /* \"#utility.yul\":2339:2461   */\n    tag_83:\n        /* \"#utility.yul\":2487:2493   */\n      dup4\n        /* \"#utility.yul\":2470:2690   */\n    tag_85:\n        /* \"#utility.yul\":2504:2510   */\n      dup2\n        /* \"#utility.yul\":2499:2502   */\n      dup2\n        /* \"#utility.yul\":2496:2511   */\n      lt\n        /* \"#utility.yul\":2470:2690   */\n      iszero\n      tag_87\n      jumpi\n        /* \"#utility.yul\":2579:2582   */\n      dup1\n        /* \"#utility.yul\":2608:2645   */\n      tag_88\n        /* \"#utility.yul\":2641:2644   */\n      dup9\n        /* \"#utility.yul\":2629:2639   */\n      dup3\n        /* \"#utility.yul\":2608:2645   */\n      tag_45\n      jump\t// in\n    tag_88:\n        /* \"#utility.yul\":2603:2606   */\n      dup5\n        /* \"#utility.yul\":2596:2646   */\n      mstore\n        /* \"#utility.yul\":2675:2679   */\n      0x20\n        /* \"#utility.yul\":2670:2673   */\n      dup5\n        /* \"#utility.yul\":2666:2680   */\n      add\n        /* \"#utility.yul\":2659:2680   */\n      swap4\n      pop\n        /* \"#utility.yul\":2546:2690   */\n      pop\n        /* \"#utility.yul\":2530:2534   */\n      0x20\n        /* \"#utility.yul\":2525:2528   */\n      dup2\n        /* \"#utility.yul\":2521:2535   */\n      add\n        /* \"#utility.yul\":2514:2535   */\n      swap1\n      pop\n        /* \"#utility.yul\":2470:2690   */\n      jump(tag_85)\n    tag_87:\n        /* \"#utility.yul\":2474:2495   */\n      pop\n        /* \"#utility.yul\":2088:2696   */\n      pop\n      pop\n        /* \"#utility.yul\":1986:2696   */\n      swap4\n      swap3\n      pop\n      pop\n      pop\n      jump\t// out\n        /* \"#utility.yul\":2719:3089   */\n    tag_47:\n        /* \"#utility.yul\":2790:2795   */\n      0x00\n        /* \"#utility.yul\":2839:2842   */\n      dup3\n        /* \"#utility.yul\":2832:2836   */\n      0x1f\n        /* \"#utility.yul\":2824:2830   */\n      dup4\n        /* \"#utility.yul\":2820:2837   */\n      add\n        /* \"#utility.yul\":2816:2843   */\n      slt\n        /* \"#utility.yul\":2806:2928   */\n      tag_90\n      jumpi\n        /* \"#utility.yul\":2847:2926   */\n      tag_91\n      tag_36\n      jump\t// in\n    tag_91:\n        /* \"#utility.yul\":2806:2928   */\n    tag_90:\n        /* \"#utility.yul\":2964:2970   */\n      dup2\n        /* \"#utility.yul\":2951:2971   */\n      calldataload\n        /* \"#utility.yul\":2989:3083   */\n      tag_92\n        /* \"#utility.yul\":3079:3082   */\n      dup5\n        /* \"#utility.yul\":3071:3077   */\n      dup3\n        /* \"#utility.yul\":3064:3068   */\n      0x20\n        /* \"#utility.yul\":3056:3062   */\n      dup7\n        /* \"#utility.yul\":3052:3069   */\n      add\n        /* \"#utility.yul\":2989:3083   */\n      tag_46\n      jump\t// in\n    tag_92:\n        /* \"#utility.yul\":2980:3083   */\n      swap2\n      pop\n        /* \"#utility.yul\":2796:3089   */\n      pop\n        /* \"#utility.yul\":2719:3089   */\n      swap3\n      swap2\n      pop\n      pop\n      jump\t// out\n        /* \"#utility.yul\":3095:3634   */\n    tag_6:\n        /* \"#utility.yul\":3179:3185   */\n      0x00\n        /* \"#utility.yul\":3228:3230   */\n      0x20\n        /* \"#utility.yul\":3216:3225   */\n      dup3\n        /* \"#utility.yul\":3207:3214   */\n      dup5\n        /* \"#utility.yul\":3203:3226   */\n      sub\n        /* \"#utility.yul\":3199:3231   */\n      slt\n        /* \"#utility.yul\":3196:3315   */\n      iszero\n      tag_94\n      jumpi\n        /* \"#utility.yul\":3234:3313   */\n      tag_95\n      tag_34\n      jump\t// in\n    tag_95:\n        /* \"#utility.yul\":3196:3315   */\n    tag_94:\n        /* \"#utility.yul\":3382:3383   */\n      0x00\n        /* \"#utility.yul\":3371:3380   */\n      dup3\n        /* \"#utility.yul\":3367:3384   */\n      add\n        /* \"#utility.yul\":3354:3385   */\n      calldataload\n        /* \"#utility.yul\":3412:3430   */\n      0xffffffffffffffff\n        /* \"#utility.yul\":3404:3410   */\n      dup2\n        /* \"#utility.yul\":3401:3431   */\n      gt\n        /* \"#utility.yul\":3398:3515   */\n      iszero\n      tag_96\n      jumpi\n        /* \"#utility.yul\":3434:3513   */\n      tag_97\n      tag_35\n      jump\t// in\n    tag_97:\n        /* \"#utility.yul\":3398:3515   */\n    tag_96:\n        /* \"#utility.yul\":3539:3617   */\n      tag_98\n        /* \"#utility.yul\":3609:3616   */\n      dup5\n        /* \"#utility.yul\":3600:3606   */\n      dup3\n        /* \"#utility.yul\":3589:3598   */\n      dup6\n        /* \"#utility.yul\":3585:3607   */\n      add\n        /* \"#utility.yul\":3539:3617   */\n      tag_47\n      jump\t// in\n    tag_98:\n        /* \"#utility.yul\":3529:3617   */\n      swap2\n      pop\n        /* \"#utility.yul\":3325:3627   */\n      pop\n        /* \"#utility.yul\":3095:3634   */\n      swap3\n      swap2\n      pop\n      pop\n      jump\t// out\n        /* \"#utility.yul\":3640:3754   */\n    tag_48:\n        /* \"#utility.yul\":3707:3713   */\n      0x00\n        /* \"#utility.yul\":3741:3746   */\n      dup2\n        /* \"#utility.yul\":3735:3747   */\n      mload\n        /* \"#utility.yul\":3725:3747   */\n      swap1\n      pop\n        /* \"#utility.yul\":3640:3754   */\n      swap2\n      swap1\n      pop\n      jump\t// out\n        /* \"#utility.yul\":3760:3944   */\n    tag_49:\n        /* \"#utility.yul\":3859:3870   */\n      0x00\n        /* \"#utility.yul\":3893:3899   */\n      dup3\n        /* \"#utility.yul\":3888:3891   */\n      dup3\n        /* \"#utility.yul\":3881:3900   */\n      mstore\n        /* \"#utility.yul\":3933:3937   */\n      0x20\n        /* \"#utility.yul\":3928:3931   */\n      dup3\n        /* \"#utility.yul\":3924:3938   */\n      add\n        /* \"#utility.yul\":3909:3938   */\n      swap1\n      pop\n        /* \"#utility.yul\":3760:3944   */\n      swap3\n      swap2\n      pop\n      pop\n      jump\t// out\n        /* \"#utility.yul\":3950:4082   */\n    tag_50:\n        /* \"#utility.yul\":4017:4021   */\n      0x00\n        /* \"#utility.yul\":4040:4043   */\n      dup2\n        /* \"#utility.yul\":4032:4043   */\n      swap1\n      pop\n        /* \"#utility.yul\":4070:4074   */\n      0x20\n        /* \"#utility.yul\":4065:4068   */\n      dup3\n        /* \"#utility.yul\":4061:4075   */\n      add\n        /* \"#utility.yul\":4053:4075   */\n      swap1\n      pop\n        /* \"#utility.yul\":3950:4082   */\n      swap2\n      swap1\n      pop\n      jump\t// out\n        /* \"#utility.yul\":4088:4196   */\n    tag_51:\n        /* \"#utility.yul\":4165:4189   */\n      tag_103\n        /* \"#utility.yul\":4183:4188   */\n      dup2\n        /* \"#utility.yul\":4165:4189   */\n      tag_43\n      jump\t// in\n    tag_103:\n        /* \"#utility.yul\":4160:4163   */\n      dup3\n        /* \"#utility.yul\":4153:4190   */\n      mstore\n        /* \"#utility.yul\":4088:4196   */\n      pop\n      pop\n      jump\t// out\n        /* \"#utility.yul\":4202:4381   */\n    tag_52:\n        /* \"#utility.yul\":4271:4281   */\n      0x00\n        /* \"#utility.yul\":4292:4338   */\n      tag_105\n        /* \"#utility.yul\":4334:4337   */\n      dup4\n        /* \"#utility.yul\":4326:4332   */\n      dup4\n        /* \"#utility.yul\":4292:4338   */\n      tag_51\n      jump\t// in\n    tag_105:\n        /* \"#utility.yul\":4370:4374   */\n      0x20\n        /* \"#utility.yul\":4365:4368   */\n      dup4\n        /* \"#utility.yul\":4361:4375   */\n      add\n        /* \"#utility.yul\":4347:4375   */\n      swap1\n      pop\n        /* \"#utility.yul\":4202:4381   */\n      swap3\n      swap2\n      pop\n      pop\n      jump\t// out\n        /* \"#utility.yul\":4387:4500   */\n    tag_53:\n        /* \"#utility.yul\":4457:4461   */\n      0x00\n        /* \"#utility.yul\":4489:4493   */\n      0x20\n        /* \"#utility.yul\":4484:4487   */\n      dup3\n        /* \"#utility.yul\":4480:4494   */\n      add\n        /* \"#utility.yul\":4472:4494   */\n      swap1\n      pop\n        /* \"#utility.yul\":4387:4500   */\n      swap2\n      swap1\n      pop\n      jump\t// out\n        /* \"#utility.yul\":4536:5268   */\n    tag_54:\n        /* \"#utility.yul\":4655:4658   */\n      0x00\n        /* \"#utility.yul\":4684:4738   */\n      tag_108\n        /* \"#utility.yul\":4732:4737   */\n      dup3\n        /* \"#utility.yul\":4684:4738   */\n      tag_48\n      jump\t// in\n    tag_108:\n        /* \"#utility.yul\":4754:4840   */\n      tag_109\n        /* \"#utility.yul\":4833:4839   */\n      dup2\n        /* \"#utility.yul\":4828:4831   */\n      dup6\n        /* \"#utility.yul\":4754:4840   */\n      tag_49\n      jump\t// in\n    tag_109:\n        /* \"#utility.yul\":4747:4840   */\n      swap4\n      pop\n        /* \"#utility.yul\":4864:4920   */\n      tag_110\n        /* \"#utility.yul\":4914:4919   */\n      dup4\n        /* \"#utility.yul\":4864:4920   */\n      tag_50\n      jump\t// in\n    tag_110:\n        /* \"#utility.yul\":4943:4950   */\n      dup1\n        /* \"#utility.yul\":4974:4975   */\n      0x00\n        /* \"#utility.yul\":4959:5243   */\n    tag_111:\n        /* \"#utility.yul\":4984:4990   */\n      dup4\n        /* \"#utility.yul\":4981:4982   */\n      dup2\n        /* \"#utility.yul\":4978:4991   */\n      lt\n        /* \"#utility.yul\":4959:5243   */\n      iszero\n      tag_113\n      jumpi\n        /* \"#utility.yul\":5060:5066   */\n      dup2\n        /* \"#utility.yul\":5054:5067   */\n      mload\n        /* \"#utility.yul\":5087:5150   */\n      tag_114\n        /* \"#utility.yul\":5146:5149   */\n      dup9\n        /* \"#utility.yul\":5131:5144   */\n      dup3\n        /* \"#utility.yul\":5087:5150   */\n      tag_52\n      jump\t// in\n    tag_114:\n        /* \"#utility.yul\":5080:5150   */\n      swap8\n      pop\n        /* \"#utility.yul\":5173:5233   */\n      tag_115\n        /* \"#utility.yul\":5226:5232   */\n      dup4\n        /* \"#utility.yul\":5173:5233   */\n      tag_53\n      jump\t// in\n    tag_115:\n        /* \"#utility.yul\":5163:5233   */\n      swap3\n      pop\n        /* \"#utility.yul\":5019:5243   */\n      pop\n        /* \"#utility.yul\":5006:5007   */\n      0x01\n        /* \"#utility.yul\":5003:5004   */\n      dup2\n        /* \"#utility.yul\":4999:5008   */\n      add\n        /* \"#utility.yul\":4994:5008   */\n      swap1\n      pop\n        /* \"#utility.yul\":4959:5243   */\n      jump(tag_111)\n    tag_113:\n        /* \"#utility.yul\":4963:4977   */\n      pop\n        /* \"#utility.yul\":5259:5262   */\n      dup6\n        /* \"#utility.yul\":5252:5262   */\n      swap4\n      pop\n        /* \"#utility.yul\":4660:5268   */\n      pop\n      pop\n      pop\n        /* \"#utility.yul\":4536:5268   */\n      swap3\n      swap2\n      pop\n      pop\n      jump\t// out\n        /* \"#utility.yul\":5274:5647   */\n    tag_9:\n        /* \"#utility.yul\":5417:5421   */\n      0x00\n        /* \"#utility.yul\":5455:5457   */\n      0x20\n        /* \"#utility.yul\":5444:5453   */\n      dup3\n        /* \"#utility.yul\":5440:5458   */\n      add\n        /* \"#utility.yul\":5432:5458   */\n      swap1\n      pop\n        /* \"#utility.yul\":5504:5513   */\n      dup2\n        /* \"#utility.yul\":5498:5502   */\n      dup2\n        /* \"#utility.yul\":5494:5514   */\n      sub\n        /* \"#utility.yul\":5490:5491   */\n      0x00\n        /* \"#utility.yul\":5479:5488   */\n      dup4\n        /* \"#utility.yul\":5475:5492   */\n      add\n        /* \"#utility.yul\":5468:5515   */\n      mstore\n        /* \"#utility.yul\":5532:5640   */\n      tag_117\n        /* \"#utility.yul\":5635:5639   */\n      dup2\n        /* \"#utility.yul\":5626:5632   */\n      dup5\n        /* \"#utility.yul\":5532:5640   */\n      tag_54\n      jump\t// in\n    tag_117:\n        /* \"#utility.yul\":5524:5640   */\n      swap1\n      pop\n        /* \"#utility.yul\":5274:5647   */\n      swap3\n      swap2\n      pop\n      pop\n      jump\t// out\n        /* \"#utility.yul\":5653:5833   */\n    tag_16:\n        /* \"#utility.yul\":5701:5778   */\n      0x4e487b7100000000000000000000000000000000000000000000000000000000\n        /* \"#utility.yul\":5698:5699   */\n      0x00\n        /* \"#utility.yul\":5691:5779   */\n      mstore\n        /* \"#utility.yul\":5798:5802   */\n      0x32\n        /* \"#utility.yul\":5795:5796   */\n      0x04\n        /* \"#utility.yul\":5788:5803   */\n      mstore\n        /* \"#utility.yul\":5822:5826   */\n      0x24\n        /* \"#utility.yul\":5819:5820   */\n      0x00\n        /* \"#utility.yul\":5812:5827   */\n      revert\n        /* \"#utility.yul\":5839:6019   */\n    tag_55:\n        /* \"#utility.yul\":5887:5964   */\n      0x4e487b7100000000000000000000000000000000000000000000000000000000\n        /* \"#utility.yul\":5884:5885   */\n      0x00\n        /* \"#utility.yul\":5877:5965   */\n      mstore\n        /* \"#utility.yul\":5984:5988   */\n      0x11\n        /* \"#utility.yul\":5981:5982   */\n      0x04\n        /* \"#utility.yul\":5974:5989   */\n      mstore\n        /* \"#utility.yul\":6008:6012   */\n      0x24\n        /* \"#utility.yul\":6005:6006   */\n      0x00\n        /* \"#utility.yul\":5998:6013   */\n      revert\n        /* \"#utility.yul\":6025:6219   */\n    tag_21:\n        /* \"#utility.yul\":6065:6069   */\n      0x00\n        /* \"#utility.yul\":6085:6105   */\n      tag_121\n        /* \"#utility.yul\":6103:6104   */\n      dup3\n        /* \"#utility.yul\":6085:6105   */\n      tag_43\n      jump\t// in\n    tag_121:\n        /* \"#utility.yul\":6080:6105   */\n      swap2\n      pop\n        /* \"#utility.yul\":6119:6139   */\n      tag_122\n        /* \"#utility.yul\":6137:6138   */\n      dup4\n        /* \"#utility.yul\":6119:6139   */\n      tag_43\n      jump\t// in\n    tag_122:\n        /* \"#utility.yul\":6114:6139   */\n      swap3\n      pop\n        /* \"#utility.yul\":6163:6164   */\n      dup3\n        /* \"#utility.yul\":6160:6161   */\n      dup3\n        /* \"#utility.yul\":6156:6165   */\n      sub\n        /* \"#utility.yul\":6148:6165   */\n      swap1\n      pop\n        /* \"#utility.yul\":6187:6188   */\n      dup2\n        /* \"#utility.yul\":6181:6185   */\n      dup2\n        /* \"#utility.yul\":6178:6189   */\n      gt\n        /* \"#utility.yul\":6175:6212   */\n      iszero\n      tag_123\n      jumpi\n        /* \"#utility.yul\":6192:6210   */\n      tag_124\n      tag_55\n      jump\t// in\n    tag_124:\n        /* \"#utility.yul\":6175:6212   */\n    tag_123:\n        /* \"#utility.yul\":6025:6219   */\n      swap3\n      swap2\n      pop\n      pop\n      jump\t// out\n        /* \"#utility.yul\":6225:6396   */\n    tag_30:\n        /* \"#utility.yul\":6264:6267   */\n      0x00\n        /* \"#utility.yul\":6287:6311   */\n      tag_126\n        /* \"#utility.yul\":6305:6310   */\n      dup3\n        /* \"#utility.yul\":6287:6311   */\n      tag_43\n      jump\t// in\n    tag_126:\n        /* \"#utility.yul\":6278:6311   */\n      swap2\n      pop\n        /* \"#utility.yul\":6333:6337   */\n      0x00\n        /* \"#utility.yul\":6326:6331   */\n      dup3\n        /* \"#utility.yul\":6323:6338   */\n      sub\n        /* \"#utility.yul\":6320:6361   */\n      tag_127\n      jumpi\n        /* \"#utility.yul\":6341:6359   */\n      tag_128\n      tag_55\n      jump\t// in\n    tag_128:\n        /* \"#utility.yul\":6320:6361   */\n    tag_127:\n        /* \"#utility.yul\":6388:6389   */\n      0x01\n        /* \"#utility.yul\":6381:6386   */\n      dup3\n        /* \"#utility.yul\":6377:6390   */\n      sub\n        /* \"#utility.yul\":6370:6390   */\n      swap1\n      pop\n        /* \"#utility.yul\":6225:6396   */\n      swap2\n      swap1\n      pop\n      jump\t// out\n\n    auxdata: 0xa26469706673582212207c97d13458b6020e55da090266d7bb5a6c20dd49e955dbfca55489e6e78de7bc64736f6c634300081a0033\n}\n",
				"bytecode": {
					"linkReferences": {},
					"object": "6080604052348015600e575f80fd5b506104f98061001c5f395ff3fe608060405234801561000f575f80fd5b5060043610610029575f3560e01c8063b23d97f21461002d575b5f80fd5b610047600480360381019061004291906102f1565b61005d565b60405161005491906103ef565b60405180910390f35b60605f600190505b8251811015610154575f8382815181106100825761008161040f565b5b602002602001015190505f8290505b600181101580156100c75750846001826100ab9190610469565b815181106100bc576100bb61040f565b5b602002602001015182105b1561012557846001826100da9190610469565b815181106100eb576100ea61040f565b5b60200260200101518582815181106101065761010561040f565b5b602002602001018181525050808061011d9061049c565b915050610091565b818582815181106101395761013861040f565b5b60200260200101818152505050508080600101915050610065565b50819050919050565b5f604051905090565b5f80fd5b5f80fd5b5f80fd5b5f601f19601f8301169050919050565b7f4e487b71000000000000000000000000000000000000000000000000000000005f52604160045260245ffd5b6101b882610172565b810181811067ffffffffffffffff821117156101d7576101d6610182565b5b80604052505050565b5f6101e961015d565b90506101f582826101af565b919050565b5f67ffffffffffffffff82111561021457610213610182565b5b602082029050602081019050919050565b5f80fd5b5f819050919050565b61023b81610229565b8114610245575f80fd5b50565b5f8135905061025681610232565b92915050565b5f61026e610269846101fa565b6101e0565b9050808382526020820190506020840283018581111561029157610290610225565b5b835b818110156102ba57806102a68882610248565b845260208401935050602081019050610293565b5050509392505050565b5f82601f8301126102d8576102d761016e565b5b81356102e884826020860161025c565b91505092915050565b5f6020828403121561030657610305610166565b5b5f82013567ffffffffffffffff8111156103235761032261016a565b5b61032f848285016102c4565b91505092915050565b5f81519050919050565b5f82825260208201905092915050565b5f819050602082019050919050565b61036a81610229565b82525050565b5f61037b8383610361565b60208301905092915050565b5f602082019050919050565b5f61039d82610338565b6103a78185610342565b93506103b283610352565b805f5b838110156103e25781516103c98882610370565b97506103d483610387565b9250506001810190506103b5565b5085935050505092915050565b5f6020820190508181035f8301526104078184610393565b905092915050565b7f4e487b71000000000000000000000000000000000000000000000000000000005f52603260045260245ffd5b7f4e487b71000000000000000000000000000000000000000000000000000000005f52601160045260245ffd5b5f61047382610229565b915061047e83610229565b92508282039050818111156104965761049561043c565b5b92915050565b5f6104a682610229565b91505f82036104b8576104b761043c565b5b60018203905091905056fea26469706673582212207c97d13458b6020e55da090266d7bb5a6c20dd49e955dbfca55489e6e78de7bc64736f6c634300081a0033",
					"opcodes": "PUSH1 0x80 PUSH1 0x40 MSTORE CALLVALUE DUP1 ISZERO PUSH1 0xE JUMPI PUSH0 DUP1 REVERT JUMPDEST POP PUSH2 0x4F9 DUP1 PUSH2 0x1C PUSH0 CODECOPY PUSH0 RETURN INVALID PUSH1 0x80 PUSH1 0x40 MSTORE CALLVALUE DUP1 ISZERO PUSH2 0xF JUMPI PUSH0 DUP1 REVERT JUMPDEST POP PUSH1 0x4 CALLDATASIZE LT PUSH2 0x29 JUMPI PUSH0 CALLDATALOAD PUSH1 0xE0 SHR DUP1 PUSH4 0xB23D97F2 EQ PUSH2 0x2D JUMPI JUMPDEST PUSH0 DUP1 REVERT JUMPDEST PUSH2 0x47 PUSH1 0x4 DUP1 CALLDATASIZE SUB DUP2 ADD SWAP1 PUSH2 0x42 SWAP2 SWAP1 PUSH2 0x2F1 JUMP JUMPDEST PUSH2 0x5D JUMP JUMPDEST PUSH1 0x40 MLOAD PUSH2 0x54 SWAP2 SWAP1 PUSH2 0x3EF JUMP JUMPDEST PUSH1 0x40 MLOAD DUP1 SWAP2 SUB SWAP1 RETURN JUMPDEST PUSH1 0x60 PUSH0 PUSH1 0x1 SWAP1 POP JUMPDEST DUP3 MLOAD DUP2 LT ISZERO PUSH2 0x154 JUMPI PUSH0 DUP4 DUP3 DUP2 MLOAD DUP2 LT PUSH2 0x82 JUMPI PUSH2 0x81 PUSH2 0x40F JUMP JUMPDEST JUMPDEST PUSH1 0x20 MUL PUSH1 0x20 ADD ADD MLOAD SWAP1 POP PUSH0 DUP3 SWAP1 POP JUMPDEST PUSH1 0x1 DUP2 LT ISZERO DUP1 ISZERO PUSH2 0xC7 JUMPI POP DUP5 PUSH1 0x1 DUP3 PUSH2 0xAB SWAP2 SWAP1 PUSH2 0x469 JUMP JUMPDEST DUP2 MLOAD DUP2 LT PUSH2 0xBC JUMPI PUSH2 0xBB PUSH2 0x40F JUMP JUMPDEST JUMPDEST PUSH1 0x20 MUL PUSH1 0x20 ADD ADD MLOAD DUP3 LT JUMPDEST ISZERO PUSH2 0x125 JUMPI DUP5 PUSH1 0x1 DUP3 PUSH2 0xDA SWAP2 SWAP1 PUSH2 0x469 JUMP JUMPDEST DUP2 MLOAD DUP2 LT PUSH2 0xEB JUMPI PUSH2 0xEA PUSH2 0x40F JUMP JUMPDEST JUMPDEST PUSH1 0x20 MUL PUSH1 0x20 ADD ADD MLOAD DUP6 DUP3 DUP2 MLOAD DUP2 LT PUSH2 0x106 JUMPI PUSH2 0x105 PUSH2 0x40F JUMP JUMPDEST JUMPDEST PUSH1 0x20 MUL PUSH1 0x20 ADD ADD DUP2 DUP2 MSTORE POP POP DUP1 DUP1 PUSH2 0x11D SWAP1 PUSH2 0x49C JUMP JUMPDEST SWAP2 POP POP PUSH2 0x91 JUMP JUMPDEST DUP2 DUP6 DUP3 DUP2 MLOAD DUP2 LT PUSH2 0x139 JUMPI PUSH2 0x138 PUSH2 0x40F JUMP JUMPDEST JUMPDEST PUSH1 0x20 MUL PUSH1 0x20 ADD ADD DUP2 DUP2 MSTORE POP POP POP POP DUP1 DUP1 PUSH1 0x1 ADD SWAP2 POP POP PUSH2 0x65 JUMP JUMPDEST POP DUP2 SWAP1 POP SWAP2 SWAP1 POP JUMP JUMPDEST PUSH0 PUSH1 0x40 MLOAD SWAP1 POP SWAP1 JUMP JUMPDEST PUSH0 DUP1 REVERT JUMPDEST PUSH0 DUP1 REVERT JUMPDEST PUSH0 DUP1 REVERT JUMPDEST PUSH0 PUSH1 0x1F NOT PUSH1 0x1F DUP4 ADD AND SWAP1 POP SWAP2 SWAP1 POP JUMP JUMPDEST PUSH32 0x4E487B7100000000000000000000000000000000000000000000000000000000 PUSH0 MSTORE PUSH1 0x41 PUSH1 0x4 MSTORE PUSH1 0x24 PUSH0 REVERT JUMPDEST PUSH2 0x1B8 DUP3 PUSH2 0x172 JUMP JUMPDEST DUP2 ADD DUP2 DUP2 LT PUSH8 0xFFFFFFFFFFFFFFFF DUP3 GT OR ISZERO PUSH2 0x1D7 JUMPI PUSH2 0x1D6 PUSH2 0x182 JUMP JUMPDEST JUMPDEST DUP1 PUSH1 0x40 MSTORE POP POP POP JUMP JUMPDEST PUSH0 PUSH2 0x1E9 PUSH2 0x15D JUMP JUMPDEST SWAP1 POP PUSH2 0x1F5 DUP3 DUP3 PUSH2 0x1AF JUMP JUMPDEST SWAP2 SWAP1 POP JUMP JUMPDEST PUSH0 PUSH8 0xFFFFFFFFFFFFFFFF DUP3 GT ISZERO PUSH2 0x214 JUMPI PUSH2 0x213 PUSH2 0x182 JUMP JUMPDEST JUMPDEST PUSH1 0x20 DUP3 MUL SWAP1 POP PUSH1 0x20 DUP2 ADD SWAP1 POP SWAP2 SWAP1 POP JUMP JUMPDEST PUSH0 DUP1 REVERT JUMPDEST PUSH0 DUP2 SWAP1 POP SWAP2 SWAP1 POP JUMP JUMPDEST PUSH2 0x23B DUP2 PUSH2 0x229 JUMP JUMPDEST DUP2 EQ PUSH2 0x245 JUMPI PUSH0 DUP1 REVERT JUMPDEST POP JUMP JUMPDEST PUSH0 DUP2 CALLDATALOAD SWAP1 POP PUSH2 0x256 DUP2 PUSH2 0x232 JUMP JUMPDEST SWAP3 SWAP2 POP POP JUMP JUMPDEST PUSH0 PUSH2 0x26E PUSH2 0x269 DUP5 PUSH2 0x1FA JUMP JUMPDEST PUSH2 0x1E0 JUMP JUMPDEST SWAP1 POP DUP1 DUP4 DUP3 MSTORE PUSH1 0x20 DUP3 ADD SWAP1 POP PUSH1 0x20 DUP5 MUL DUP4 ADD DUP6 DUP2 GT ISZERO PUSH2 0x291 JUMPI PUSH2 0x290 PUSH2 0x225 JUMP JUMPDEST JUMPDEST DUP4 JUMPDEST DUP2 DUP2 LT ISZERO PUSH2 0x2BA JUMPI DUP1 PUSH2 0x2A6 DUP9 DUP3 PUSH2 0x248 JUMP JUMPDEST DUP5 MSTORE PUSH1 0x20 DUP5 ADD SWAP4 POP POP PUSH1 0x20 DUP2 ADD SWAP1 POP PUSH2 0x293 JUMP JUMPDEST POP POP POP SWAP4 SWAP3 POP POP POP JUMP JUMPDEST PUSH0 DUP3 PUSH1 0x1F DUP4 ADD SLT PUSH2 0x2D8 JUMPI PUSH2 0x2D7 PUSH2 0x16E JUMP JUMPDEST JUMPDEST DUP2 CALLDATALOAD PUSH2 0x2E8 DUP5 DUP3 PUSH1 0x20 DUP7 ADD PUSH2 0x25C JUMP JUMPDEST SWAP2 POP POP SWAP3 SWAP2 POP POP JUMP JUMPDEST PUSH0 PUSH1 0x20 DUP3 DUP5 SUB SLT ISZERO PUSH2 0x306 JUMPI PUSH2 0x305 PUSH2 0x166 JUMP JUMPDEST JUMPDEST PUSH0 DUP3 ADD CALLDATALOAD PUSH8 0xFFFFFFFFFFFFFFFF DUP2 GT ISZERO PUSH2 0x323 JUMPI PUSH2 0x322 PUSH2 0x16A JUMP JUMPDEST JUMPDEST PUSH2 0x32F DUP5 DUP3 DUP6 ADD PUSH2 0x2C4 JUMP JUMPDEST SWAP2 POP POP SWAP3 SWAP2 POP POP JUMP JUMPDEST PUSH0 DUP2 MLOAD SWAP1 POP SWAP2 SWAP1 POP JUMP JUMPDEST PUSH0 DUP3 DUP3 MSTORE PUSH1 0x20 DUP3 ADD SWAP1 POP SWAP3 SWAP2 POP POP JUMP JUMPDEST PUSH0 DUP2 SWAP1 POP PUSH1 0x20 DUP3 ADD SWAP1 POP SWAP2 SWAP1 POP JUMP JUMPDEST PUSH2 0x36A DUP2 PUSH2 0x229 JUMP JUMPDEST DUP3 MSTORE POP POP JUMP JUMPDEST PUSH0 PUSH2 0x37B DUP4 DUP4 PUSH2 0x361 JUMP JUMPDEST PUSH1 0x20 DUP4 ADD SWAP1 POP SWAP3 SWAP2 POP POP JUMP JUMPDEST PUSH0 PUSH1 0x20 DUP3 ADD SWAP1 POP SWAP2 SWAP1 POP JUMP JUMPDEST PUSH0 PUSH2 0x39D DUP3 PUSH2 0x338 JUMP JUMPDEST PUSH2 0x3A7 DUP2 DUP6 PUSH2 0x342 JUMP JUMPDEST SWAP4 POP PUSH2 0x3B2 DUP4 PUSH2 0x352 JUMP JUMPDEST DUP1 PUSH0 JUMPDEST DUP4 DUP2 LT ISZERO PUSH2 0x3E2 JUMPI DUP2 MLOAD PUSH2 0x3C9 DUP9 DUP3 PUSH2 0x370 JUMP JUMPDEST SWAP8 POP PUSH2 0x3D4 DUP4 PUSH2 0x387 JUMP JUMPDEST SWAP3 POP POP PUSH1 0x1 DUP2 ADD SWAP1 POP PUSH2 0x3B5 JUMP JUMPDEST POP DUP6 SWAP4 POP POP POP POP SWAP3 SWAP2 POP POP JUMP JUMPDEST PUSH0 PUSH1 0x20 DUP3 ADD SWAP1 POP DUP2 DUP2 SUB PUSH0 DUP4 ADD MSTORE PUSH2 0x407 DUP2 DUP5 PUSH2 0x393 JUMP JUMPDEST SWAP1 POP SWAP3 SWAP2 POP POP JUMP JUMPDEST PUSH32 0x4E487B7100000000000000000000000000000000000000000000000000000000 PUSH0 MSTORE PUSH1 0x32 PUSH1 0x4 MSTORE PUSH1 0x24 PUSH0 REVERT JUMPDEST PUSH32 0x4E487B7100000000000000000000000000000000000000000000000000000000 PUSH0 MSTORE PUSH1 0x11 PUSH1 0x4 MSTORE PUSH1 0x24 PUSH0 REVERT JUMPDEST PUSH0 PUSH2 0x473 DUP3 PUSH2 0x229 JUMP JUMPDEST SWAP2 POP PUSH2 0x47E DUP4 PUSH2 0x229 JUMP JUMPDEST SWAP3 POP DUP3 DUP3 SUB SWAP1 POP DUP2 DUP2 GT ISZERO PUSH2 0x496 JUMPI PUSH2 0x495 PUSH2 0x43C JUMP JUMPDEST JUMPDEST SWAP3 SWAP2 POP POP JUMP JUMPDEST PUSH0 PUSH2 0x4A6 DUP3 PUSH2 0x229 JUMP JUMPDEST SWAP2 POP PUSH0 DUP3 SUB PUSH2 0x4B8 JUMPI PUSH2 0x4B7 PUSH2 0x43C JUMP JUMPDEST JUMPDEST PUSH1 0x1 DUP3 SUB SWAP1 POP SWAP2 SWAP1 POP JUMP INVALID LOG2 PUSH5 0x6970667358 0x22 SLT KECCAK256 PUSH29 0x97D13458B6020E55DA090266D7BB5A6C20DD49E955DBFCA55489E6E78D 0xE7 0xBC PUSH5 0x736F6C6343 STOP ADDMOD BYTE STOP CALLER "
				},
				"gasEstimates": {
					"creation": {
						"codeDepositCost": "254600",
						"executionCost": "292",
						"totalCost": "254892"
					},
					"external": {
						"insertSort(uint256[])": "infinite"
					}
				},
				"methodIdentifiers": {
					"insertSort(uint256[])": "b23d97f2"
				}
			},
			"storageLayout": {
				"storage": [],
				"types": null
			},
			"userdoc": {
				"kind": "user",
				"methods": {},
				"version": 1
			}
		}
	}
}