{
	"22_Call/OtherContract.sol": {
		"Call": {
			"abi": [
				{
					"anonymous": false,
					"inputs": [
						{
							"indexed": false,
							"internalType": "bool",
							"name": "success",
							"type": "bool"
						},
						{
							"indexed": false,
							"internalType": "bytes",
							"name": "data",
							"type": "bytes"
						}
					],
					"name": "Response",
					"type": "event"
				},
				{
					"inputs": [
						{
							"internalType": "address",
							"name": "_addr",
							"type": "address"
						}
					],
					"name": "callGetX",
					"outputs": [
						{
							"internalType": "uint256",
							"name": "",
							"type": "uint256"
						}
					],
					"stateMutability": "nonpayable",
					"type": "function"
				},
				{
					"inputs": [
						{
							"internalType": "address",
							"name": "_addr",
							"type": "address"
						}
					],
					"name": "callNonExist",
					"outputs": [],
					"stateMutability": "nonpayable",
					"type": "function"
				},
				{
					"inputs": [
						{
							"internalType": "address payable",
							"name": "_addr",
							"type": "address"
						},
						{
							"internalType": "uint256",
							"name": "x",
							"type": "uint256"
						}
					],
					"name": "callSetX",
					"outputs": [],
					"stateMutability": "payable",
					"type": "function"
				}
			],
			"devdoc": {
				"kind": "dev",
				"methods": {},
				"version": 1
			},
			"evm": {
				"assembly": "    /* \"22_Call/OtherContract.sol\":747:1772  contract Call{... */\n  mstore(0x40, 0x80)\n  callvalue\n  dup1\n  iszero\n  tag_1\n  jumpi\n  0x00\n  dup1\n  revert\ntag_1:\n  pop\n  dataSize(sub_0)\n  dup1\n  dataOffset(sub_0)\n  0x00\n  codecopy\n  0x00\n  return\nstop\n\nsub_0: assembly {\n        /* \"22_Call/OtherContract.sol\":747:1772  contract Call{... */\n      mstore(0x40, 0x80)\n      jumpi(tag_1, lt(calldatasize, 0x04))\n      shr(0xe0, calldataload(0x00))\n      dup1\n      0x0c49c74b\n      eq\n      tag_2\n      jumpi\n      dup1\n      0x3ca065bb\n      eq\n      tag_3\n      jumpi\n      dup1\n      0x66563e69\n      eq\n      tag_4\n      jumpi\n    tag_1:\n      0x00\n      dup1\n      revert\n        /* \"22_Call/OtherContract.sol\":1510:1770  function callNonExist(address _addr) external{... */\n    tag_2:\n      callvalue\n      dup1\n      iszero\n      tag_5\n      jumpi\n      0x00\n      dup1\n      revert\n    tag_5:\n      pop\n      tag_6\n      0x04\n      dup1\n      calldatasize\n      sub\n      dup2\n      add\n      swap1\n      tag_7\n      swap2\n      swap1\n      tag_8\n      jump\t// in\n    tag_7:\n      tag_9\n      jump\t// in\n    tag_6:\n      stop\n        /* \"22_Call/OtherContract.sol\":883:1199  function callSetX(address payable _addr, uint256 x) public payable {... */\n    tag_3:\n      tag_10\n      0x04\n      dup1\n      calldatasize\n      sub\n      dup2\n      add\n      swap1\n      tag_11\n      swap2\n      swap1\n      tag_12\n      jump\t// in\n    tag_11:\n      tag_13\n      jump\t// in\n    tag_10:\n      stop\n        /* \"22_Call/OtherContract.sol\":1205:1504  function callGetX(address _addr) external returns(uint256){... */\n    tag_4:\n      callvalue\n      dup1\n      iszero\n      tag_14\n      jumpi\n      0x00\n      dup1\n      revert\n    tag_14:\n      pop\n      tag_15\n      0x04\n      dup1\n      calldatasize\n      sub\n      dup2\n      add\n      swap1\n      tag_16\n      swap2\n      swap1\n      tag_8\n      jump\t// in\n    tag_16:\n      tag_17\n      jump\t// in\n    tag_15:\n      mload(0x40)\n      tag_18\n      swap2\n      swap1\n      tag_19\n      jump\t// in\n    tag_18:\n      mload(0x40)\n      dup1\n      swap2\n      sub\n      swap1\n      return\n        /* \"22_Call/OtherContract.sol\":1510:1770  function callNonExist(address _addr) external{... */\n    tag_9:\n        /* \"22_Call/OtherContract.sol\":1601:1613  bool success */\n      0x00\n        /* \"22_Call/OtherContract.sol\":1615:1632  bytes memory data */\n      dup1\n        /* \"22_Call/OtherContract.sol\":1636:1641  _addr */\n      dup3\n        /* \"22_Call/OtherContract.sol\":1636:1646  _addr.call */\n      0xffffffffffffffffffffffffffffffffffffffff\n      and\n        /* \"22_Call/OtherContract.sol\":1660:1699  abi.encodeWithSignature(\"foo(uint256)\") */\n      add(0x24, mload(0x40))\n      mload(0x40)\n      0x20\n      dup2\n      dup4\n      sub\n      sub\n      dup2\n      mstore\n      swap1\n      0x40\n      mstore\n      and(not(0xffffffffffffffffffffffffffffffffffffffffffffffffffffffff), 0x2fbebd3800000000000000000000000000000000000000000000000000000000)\n      0x20\n      dup3\n      add\n      dup1\n      mload\n      0xffffffffffffffffffffffffffffffffffffffffffffffffffffffff\n      dup4\n      dup2\n      dup4\n      and\n      or\n      dup4\n      mstore\n      pop\n      pop\n      pop\n      pop\n        /* \"22_Call/OtherContract.sol\":1636:1709  _addr.call(... */\n      mload(0x40)\n      tag_21\n      swap2\n      swap1\n      tag_22\n      jump\t// in\n    tag_21:\n      0x00\n      mload(0x40)\n      dup1\n      dup4\n      sub\n      dup2\n      0x00\n      dup7\n      gas\n      call\n      swap2\n      pop\n      pop\n      returndatasize\n      dup1\n      0x00\n      dup2\n      eq\n      tag_25\n      jumpi\n      mload(0x40)\n      swap2\n      pop\n      and(add(returndatasize, 0x3f), not(0x1f))\n      dup3\n      add\n      0x40\n      mstore\n      returndatasize\n      dup3\n      mstore\n      returndatasize\n      0x00\n      0x20\n      dup5\n      add\n      returndatacopy\n      jump(tag_24)\n    tag_25:\n      0x60\n      swap2\n      pop\n    tag_24:\n      pop\n        /* \"22_Call/OtherContract.sol\":1600:1709  (bool success, bytes memory data) = _addr.call(... */\n      swap2\n      pop\n      swap2\n      pop\n        /* \"22_Call/OtherContract.sol\":1725:1748  Response(success, data) */\n      0x13848c3e38f8886f3f5d2ad9dff80d8092c2bbb8efd5b887a99c2c6cfc09ac2a\n        /* \"22_Call/OtherContract.sol\":1734:1741  success */\n      dup3\n        /* \"22_Call/OtherContract.sol\":1743:1747  data */\n      dup3\n        /* \"22_Call/OtherContract.sol\":1725:1748  Response(success, data) */\n      mload(0x40)\n      tag_26\n      swap3\n      swap2\n      swap1\n      tag_27\n      jump\t// in\n    tag_26:\n      mload(0x40)\n      dup1\n      swap2\n      sub\n      swap1\n      log1\n        /* \"22_Call/OtherContract.sol\":1555:1770  {... */\n      pop\n      pop\n        /* \"22_Call/OtherContract.sol\":1510:1770  function callNonExist(address _addr) external{... */\n      pop\n      jump\t// out\n        /* \"22_Call/OtherContract.sol\":883:1199  function callSetX(address payable _addr, uint256 x) public payable {... */\n    tag_13:\n        /* \"22_Call/OtherContract.sol\":1008:1020  bool success */\n      0x00\n        /* \"22_Call/OtherContract.sol\":1022:1039  bytes memory data */\n      dup1\n        /* \"22_Call/OtherContract.sol\":1043:1048  _addr */\n      dup4\n        /* \"22_Call/OtherContract.sol\":1043:1053  _addr.call */\n      0xffffffffffffffffffffffffffffffffffffffff\n      and\n        /* \"22_Call/OtherContract.sol\":1061:1070  msg.value */\n      callvalue\n        /* \"22_Call/OtherContract.sol\":1126:1127  x */\n      dup5\n        /* \"22_Call/OtherContract.sol\":1085:1128  abi.encodeWithSignature(\"setX(uint256)\", x) */\n      add(0x24, mload(0x40))\n      tag_29\n      swap2\n      swap1\n      tag_19\n      jump\t// in\n    tag_29:\n      mload(0x40)\n      0x20\n      dup2\n      dup4\n      sub\n      sub\n      dup2\n      mstore\n      swap1\n      0x40\n      mstore\n      and(not(0xffffffffffffffffffffffffffffffffffffffffffffffffffffffff), 0x4018d9aa00000000000000000000000000000000000000000000000000000000)\n      0x20\n      dup3\n      add\n      dup1\n      mload\n      0xffffffffffffffffffffffffffffffffffffffffffffffffffffffff\n      dup4\n      dup2\n      dup4\n      and\n      or\n      dup4\n      mstore\n      pop\n      pop\n      pop\n      pop\n        /* \"22_Call/OtherContract.sol\":1043:1138  _addr.call{value: msg.value}(... */\n      mload(0x40)\n      tag_30\n      swap2\n      swap1\n      tag_22\n      jump\t// in\n    tag_30:\n      0x00\n      mload(0x40)\n      dup1\n      dup4\n      sub\n      dup2\n      dup6\n      dup8\n      gas\n      call\n      swap3\n      pop\n      pop\n      pop\n      returndatasize\n      dup1\n      0x00\n      dup2\n      eq\n      tag_33\n      jumpi\n      mload(0x40)\n      swap2\n      pop\n      and(add(returndatasize, 0x3f), not(0x1f))\n      dup3\n      add\n      0x40\n      mstore\n      returndatasize\n      dup3\n      mstore\n      returndatasize\n      0x00\n      0x20\n      dup5\n      add\n      returndatacopy\n      jump(tag_32)\n    tag_33:\n      0x60\n      swap2\n      pop\n    tag_32:\n      pop\n        /* \"22_Call/OtherContract.sol\":1007:1138  (bool success, bytes memory data) = _addr.call{value: msg.value}(... */\n      swap2\n      pop\n      swap2\n      pop\n        /* \"22_Call/OtherContract.sol\":1154:1177  Response(success, data) */\n      0x13848c3e38f8886f3f5d2ad9dff80d8092c2bbb8efd5b887a99c2c6cfc09ac2a\n        /* \"22_Call/OtherContract.sol\":1163:1170  success */\n      dup3\n        /* \"22_Call/OtherContract.sol\":1172:1176  data */\n      dup3\n        /* \"22_Call/OtherContract.sol\":1154:1177  Response(success, data) */\n      mload(0x40)\n      tag_34\n      swap3\n      swap2\n      swap1\n      tag_27\n      jump\t// in\n    tag_34:\n      mload(0x40)\n      dup1\n      swap2\n      sub\n      swap1\n      log1\n        /* \"22_Call/OtherContract.sol\":950:1199  {... */\n      pop\n      pop\n        /* \"22_Call/OtherContract.sol\":883:1199  function callSetX(address payable _addr, uint256 x) public payable {... */\n      pop\n      pop\n      jump\t// out\n        /* \"22_Call/OtherContract.sol\":1205:1504  function callGetX(address _addr) external returns(uint256){... */\n    tag_17:\n        /* \"22_Call/OtherContract.sol\":1255:1262  uint256 */\n      0x00\n        /* \"22_Call/OtherContract.sol\":1297:1309  bool success */\n      dup1\n        /* \"22_Call/OtherContract.sol\":1311:1328  bytes memory data */\n      0x00\n        /* \"22_Call/OtherContract.sol\":1332:1337  _addr */\n      dup4\n        /* \"22_Call/OtherContract.sol\":1332:1342  _addr.call */\n      0xffffffffffffffffffffffffffffffffffffffff\n      and\n        /* \"22_Call/OtherContract.sol\":1356:1389  abi.encodeWithSignature(\"getX()\") */\n      add(0x24, mload(0x40))\n      mload(0x40)\n      0x20\n      dup2\n      dup4\n      sub\n      sub\n      dup2\n      mstore\n      swap1\n      0x40\n      mstore\n      and(not(0xffffffffffffffffffffffffffffffffffffffffffffffffffffffff), 0x5197c7aa00000000000000000000000000000000000000000000000000000000)\n      0x20\n      dup3\n      add\n      dup1\n      mload\n      0xffffffffffffffffffffffffffffffffffffffffffffffffffffffff\n      dup4\n      dup2\n      dup4\n      and\n      or\n      dup4\n      mstore\n      pop\n      pop\n      pop\n      pop\n        /* \"22_Call/OtherContract.sol\":1332:1399  _addr.call(... */\n      mload(0x40)\n      tag_36\n      swap2\n      swap1\n      tag_22\n      jump\t// in\n    tag_36:\n      0x00\n      mload(0x40)\n      dup1\n      dup4\n      sub\n      dup2\n      0x00\n      dup7\n      gas\n      call\n      swap2\n      pop\n      pop\n      returndatasize\n      dup1\n      0x00\n      dup2\n      eq\n      tag_39\n      jumpi\n      mload(0x40)\n      swap2\n      pop\n      and(add(returndatasize, 0x3f), not(0x1f))\n      dup3\n      add\n      0x40\n      mstore\n      returndatasize\n      dup3\n      mstore\n      returndatasize\n      0x00\n      0x20\n      dup5\n      add\n      returndatacopy\n      jump(tag_38)\n    tag_39:\n      0x60\n      swap2\n      pop\n    tag_38:\n      pop\n        /* \"22_Call/OtherContract.sol\":1296:1399  (bool success, bytes memory data) = _addr.call(... */\n      swap2\n      pop\n      swap2\n      pop\n        /* \"22_Call/OtherContract.sol\":1415:1438  Response(success, data) */\n      0x13848c3e38f8886f3f5d2ad9dff80d8092c2bbb8efd5b887a99c2c6cfc09ac2a\n        /* \"22_Call/OtherContract.sol\":1424:1431  success */\n      dup3\n        /* \"22_Call/OtherContract.sol\":1433:1437  data */\n      dup3\n        /* \"22_Call/OtherContract.sol\":1415:1438  Response(success, data) */\n      mload(0x40)\n      tag_40\n      swap3\n      swap2\n      swap1\n      tag_27\n      jump\t// in\n    tag_40:\n      mload(0x40)\n      dup1\n      swap2\n      sub\n      swap1\n      log1\n        /* \"22_Call/OtherContract.sol\":1481:1485  data */\n      dup1\n        /* \"22_Call/OtherContract.sol\":1470:1497  abi.decode(data, (uint256)) */\n      dup1\n      0x20\n      add\n      swap1\n      mload\n      dup2\n      add\n      swap1\n      tag_41\n      swap2\n      swap1\n      tag_42\n      jump\t// in\n    tag_41:\n        /* \"22_Call/OtherContract.sol\":1463:1497  return abi.decode(data, (uint256)) */\n      swap3\n      pop\n      pop\n      pop\n        /* \"22_Call/OtherContract.sol\":1205:1504  function callGetX(address _addr) external returns(uint256){... */\n      swap2\n      swap1\n      pop\n      jump\t// out\n        /* \"#utility.yul\":88:205   */\n    tag_44:\n        /* \"#utility.yul\":197:198   */\n      0x00\n        /* \"#utility.yul\":194:195   */\n      dup1\n        /* \"#utility.yul\":187:199   */\n      revert\n        /* \"#utility.yul\":334:460   */\n    tag_46:\n        /* \"#utility.yul\":371:378   */\n      0x00\n        /* \"#utility.yul\":411:453   */\n      0xffffffffffffffffffffffffffffffffffffffff\n        /* \"#utility.yul\":404:409   */\n      dup3\n        /* \"#utility.yul\":400:454   */\n      and\n        /* \"#utility.yul\":389:454   */\n      swap1\n      pop\n        /* \"#utility.yul\":334:460   */\n      swap2\n      swap1\n      pop\n      jump\t// out\n        /* \"#utility.yul\":466:562   */\n    tag_47:\n        /* \"#utility.yul\":503:510   */\n      0x00\n        /* \"#utility.yul\":532:556   */\n      tag_73\n        /* \"#utility.yul\":550:555   */\n      dup3\n        /* \"#utility.yul\":532:556   */\n      tag_46\n      jump\t// in\n    tag_73:\n        /* \"#utility.yul\":521:556   */\n      swap1\n      pop\n        /* \"#utility.yul\":466:562   */\n      swap2\n      swap1\n      pop\n      jump\t// out\n        /* \"#utility.yul\":568:690   */\n    tag_48:\n        /* \"#utility.yul\":641:665   */\n      tag_75\n        /* \"#utility.yul\":659:664   */\n      dup2\n        /* \"#utility.yul\":641:665   */\n      tag_47\n      jump\t// in\n    tag_75:\n        /* \"#utility.yul\":634:639   */\n      dup2\n        /* \"#utility.yul\":631:666   */\n      eq\n        /* \"#utility.yul\":621:684   */\n      tag_76\n      jumpi\n        /* \"#utility.yul\":680:681   */\n      0x00\n        /* \"#utility.yul\":677:678   */\n      dup1\n        /* \"#utility.yul\":670:682   */\n      revert\n        /* \"#utility.yul\":621:684   */\n    tag_76:\n        /* \"#utility.yul\":568:690   */\n      pop\n      jump\t// out\n        /* \"#utility.yul\":696:835   */\n    tag_49:\n        /* \"#utility.yul\":742:747   */\n      0x00\n        /* \"#utility.yul\":780:786   */\n      dup2\n        /* \"#utility.yul\":767:787   */\n      calldataload\n        /* \"#utility.yul\":758:787   */\n      swap1\n      pop\n        /* \"#utility.yul\":796:829   */\n      tag_78\n        /* \"#utility.yul\":823:828   */\n      dup2\n        /* \"#utility.yul\":796:829   */\n      tag_48\n      jump\t// in\n    tag_78:\n        /* \"#utility.yul\":696:835   */\n      swap3\n      swap2\n      pop\n      pop\n      jump\t// out\n        /* \"#utility.yul\":841:1170   */\n    tag_8:\n        /* \"#utility.yul\":900:906   */\n      0x00\n        /* \"#utility.yul\":949:951   */\n      0x20\n        /* \"#utility.yul\":937:946   */\n      dup3\n        /* \"#utility.yul\":928:935   */\n      dup5\n        /* \"#utility.yul\":924:947   */\n      sub\n        /* \"#utility.yul\":920:952   */\n      slt\n        /* \"#utility.yul\":917:1036   */\n      iszero\n      tag_80\n      jumpi\n        /* \"#utility.yul\":955:1034   */\n      tag_81\n      tag_44\n      jump\t// in\n    tag_81:\n        /* \"#utility.yul\":917:1036   */\n    tag_80:\n        /* \"#utility.yul\":1075:1076   */\n      0x00\n        /* \"#utility.yul\":1100:1153   */\n      tag_82\n        /* \"#utility.yul\":1145:1152   */\n      dup5\n        /* \"#utility.yul\":1136:1142   */\n      dup3\n        /* \"#utility.yul\":1125:1134   */\n      dup6\n        /* \"#utility.yul\":1121:1143   */\n      add\n        /* \"#utility.yul\":1100:1153   */\n      tag_49\n      jump\t// in\n    tag_82:\n        /* \"#utility.yul\":1090:1153   */\n      swap2\n      pop\n        /* \"#utility.yul\":1046:1163   */\n      pop\n        /* \"#utility.yul\":841:1170   */\n      swap3\n      swap2\n      pop\n      pop\n      jump\t// out\n        /* \"#utility.yul\":1176:1280   */\n    tag_50:\n        /* \"#utility.yul\":1221:1228   */\n      0x00\n        /* \"#utility.yul\":1250:1274   */\n      tag_84\n        /* \"#utility.yul\":1268:1273   */\n      dup3\n        /* \"#utility.yul\":1250:1274   */\n      tag_46\n      jump\t// in\n    tag_84:\n        /* \"#utility.yul\":1239:1274   */\n      swap1\n      pop\n        /* \"#utility.yul\":1176:1280   */\n      swap2\n      swap1\n      pop\n      jump\t// out\n        /* \"#utility.yul\":1286:1424   */\n    tag_51:\n        /* \"#utility.yul\":1367:1399   */\n      tag_86\n        /* \"#utility.yul\":1393:1398   */\n      dup2\n        /* \"#utility.yul\":1367:1399   */\n      tag_50\n      jump\t// in\n    tag_86:\n        /* \"#utility.yul\":1360:1365   */\n      dup2\n        /* \"#utility.yul\":1357:1400   */\n      eq\n        /* \"#utility.yul\":1347:1418   */\n      tag_87\n      jumpi\n        /* \"#utility.yul\":1414:1415   */\n      0x00\n        /* \"#utility.yul\":1411:1412   */\n      dup1\n        /* \"#utility.yul\":1404:1416   */\n      revert\n        /* \"#utility.yul\":1347:1418   */\n    tag_87:\n        /* \"#utility.yul\":1286:1424   */\n      pop\n      jump\t// out\n        /* \"#utility.yul\":1430:1585   */\n    tag_52:\n        /* \"#utility.yul\":1484:1489   */\n      0x00\n        /* \"#utility.yul\":1522:1528   */\n      dup2\n        /* \"#utility.yul\":1509:1529   */\n      calldataload\n        /* \"#utility.yul\":1500:1529   */\n      swap1\n      pop\n        /* \"#utility.yul\":1538:1579   */\n      tag_89\n        /* \"#utility.yul\":1573:1578   */\n      dup2\n        /* \"#utility.yul\":1538:1579   */\n      tag_51\n      jump\t// in\n    tag_89:\n        /* \"#utility.yul\":1430:1585   */\n      swap3\n      swap2\n      pop\n      pop\n      jump\t// out\n        /* \"#utility.yul\":1591:1668   */\n    tag_53:\n        /* \"#utility.yul\":1628:1635   */\n      0x00\n        /* \"#utility.yul\":1657:1662   */\n      dup2\n        /* \"#utility.yul\":1646:1662   */\n      swap1\n      pop\n        /* \"#utility.yul\":1591:1668   */\n      swap2\n      swap1\n      pop\n      jump\t// out\n        /* \"#utility.yul\":1674:1796   */\n    tag_54:\n        /* \"#utility.yul\":1747:1771   */\n      tag_92\n        /* \"#utility.yul\":1765:1770   */\n      dup2\n        /* \"#utility.yul\":1747:1771   */\n      tag_53\n      jump\t// in\n    tag_92:\n        /* \"#utility.yul\":1740:1745   */\n      dup2\n        /* \"#utility.yul\":1737:1772   */\n      eq\n        /* \"#utility.yul\":1727:1790   */\n      tag_93\n      jumpi\n        /* \"#utility.yul\":1786:1787   */\n      0x00\n        /* \"#utility.yul\":1783:1784   */\n      dup1\n        /* \"#utility.yul\":1776:1788   */\n      revert\n        /* \"#utility.yul\":1727:1790   */\n    tag_93:\n        /* \"#utility.yul\":1674:1796   */\n      pop\n      jump\t// out\n        /* \"#utility.yul\":1802:1941   */\n    tag_55:\n        /* \"#utility.yul\":1848:1853   */\n      0x00\n        /* \"#utility.yul\":1886:1892   */\n      dup2\n        /* \"#utility.yul\":1873:1893   */\n      calldataload\n        /* \"#utility.yul\":1864:1893   */\n      swap1\n      pop\n        /* \"#utility.yul\":1902:1935   */\n      tag_95\n        /* \"#utility.yul\":1929:1934   */\n      dup2\n        /* \"#utility.yul\":1902:1935   */\n      tag_54\n      jump\t// in\n    tag_95:\n        /* \"#utility.yul\":1802:1941   */\n      swap3\n      swap2\n      pop\n      pop\n      jump\t// out\n        /* \"#utility.yul\":1947:2437   */\n    tag_12:\n        /* \"#utility.yul\":2023:2029   */\n      0x00\n        /* \"#utility.yul\":2031:2037   */\n      dup1\n        /* \"#utility.yul\":2080:2082   */\n      0x40\n        /* \"#utility.yul\":2068:2077   */\n      dup4\n        /* \"#utility.yul\":2059:2066   */\n      dup6\n        /* \"#utility.yul\":2055:2078   */\n      sub\n        /* \"#utility.yul\":2051:2083   */\n      slt\n        /* \"#utility.yul\":2048:2167   */\n      iszero\n      tag_97\n      jumpi\n        /* \"#utility.yul\":2086:2165   */\n      tag_98\n      tag_44\n      jump\t// in\n    tag_98:\n        /* \"#utility.yul\":2048:2167   */\n    tag_97:\n        /* \"#utility.yul\":2206:2207   */\n      0x00\n        /* \"#utility.yul\":2231:2292   */\n      tag_99\n        /* \"#utility.yul\":2284:2291   */\n      dup6\n        /* \"#utility.yul\":2275:2281   */\n      dup3\n        /* \"#utility.yul\":2264:2273   */\n      dup7\n        /* \"#utility.yul\":2260:2282   */\n      add\n        /* \"#utility.yul\":2231:2292   */\n      tag_52\n      jump\t// in\n    tag_99:\n        /* \"#utility.yul\":2221:2292   */\n      swap3\n      pop\n        /* \"#utility.yul\":2177:2302   */\n      pop\n        /* \"#utility.yul\":2341:2343   */\n      0x20\n        /* \"#utility.yul\":2367:2420   */\n      tag_100\n        /* \"#utility.yul\":2412:2419   */\n      dup6\n        /* \"#utility.yul\":2403:2409   */\n      dup3\n        /* \"#utility.yul\":2392:2401   */\n      dup7\n        /* \"#utility.yul\":2388:2410   */\n      add\n        /* \"#utility.yul\":2367:2420   */\n      tag_55\n      jump\t// in\n    tag_100:\n        /* \"#utility.yul\":2357:2420   */\n      swap2\n      pop\n        /* \"#utility.yul\":2312:2430   */\n      pop\n        /* \"#utility.yul\":1947:2437   */\n      swap3\n      pop\n      swap3\n      swap1\n      pop\n      jump\t// out\n        /* \"#utility.yul\":2443:2561   */\n    tag_56:\n        /* \"#utility.yul\":2530:2554   */\n      tag_102\n        /* \"#utility.yul\":2548:2553   */\n      dup2\n        /* \"#utility.yul\":2530:2554   */\n      tag_53\n      jump\t// in\n    tag_102:\n        /* \"#utility.yul\":2525:2528   */\n      dup3\n        /* \"#utility.yul\":2518:2555   */\n      mstore\n        /* \"#utility.yul\":2443:2561   */\n      pop\n      pop\n      jump\t// out\n        /* \"#utility.yul\":2567:2789   */\n    tag_19:\n        /* \"#utility.yul\":2660:2664   */\n      0x00\n        /* \"#utility.yul\":2698:2700   */\n      0x20\n        /* \"#utility.yul\":2687:2696   */\n      dup3\n        /* \"#utility.yul\":2683:2701   */\n      add\n        /* \"#utility.yul\":2675:2701   */\n      swap1\n      pop\n        /* \"#utility.yul\":2711:2782   */\n      tag_104\n        /* \"#utility.yul\":2779:2780   */\n      0x00\n        /* \"#utility.yul\":2768:2777   */\n      dup4\n        /* \"#utility.yul\":2764:2781   */\n      add\n        /* \"#utility.yul\":2755:2761   */\n      dup5\n        /* \"#utility.yul\":2711:2782   */\n      tag_56\n      jump\t// in\n    tag_104:\n        /* \"#utility.yul\":2567:2789   */\n      swap3\n      swap2\n      pop\n      pop\n      jump\t// out\n        /* \"#utility.yul\":2795:2893   */\n    tag_57:\n        /* \"#utility.yul\":2846:2852   */\n      0x00\n        /* \"#utility.yul\":2880:2885   */\n      dup2\n        /* \"#utility.yul\":2874:2886   */\n      mload\n        /* \"#utility.yul\":2864:2886   */\n      swap1\n      pop\n        /* \"#utility.yul\":2795:2893   */\n      swap2\n      swap1\n      pop\n      jump\t// out\n        /* \"#utility.yul\":2899:3046   */\n    tag_58:\n        /* \"#utility.yul\":3000:3011   */\n      0x00\n        /* \"#utility.yul\":3037:3040   */\n      dup2\n        /* \"#utility.yul\":3022:3040   */\n      swap1\n      pop\n        /* \"#utility.yul\":2899:3046   */\n      swap3\n      swap2\n      pop\n      pop\n      jump\t// out\n        /* \"#utility.yul\":3052:3191   */\n    tag_59:\n        /* \"#utility.yul\":3141:3147   */\n      dup3\n        /* \"#utility.yul\":3136:3139   */\n      dup2\n        /* \"#utility.yul\":3131:3134   */\n      dup4\n        /* \"#utility.yul\":3125:3148   */\n      mcopy\n        /* \"#utility.yul\":3182:3183   */\n      0x00\n        /* \"#utility.yul\":3173:3179   */\n      dup4\n        /* \"#utility.yul\":3168:3171   */\n      dup4\n        /* \"#utility.yul\":3164:3180   */\n      add\n        /* \"#utility.yul\":3157:3184   */\n      mstore\n        /* \"#utility.yul\":3052:3191   */\n      pop\n      pop\n      pop\n      jump\t// out\n        /* \"#utility.yul\":3197:3583   */\n    tag_60:\n        /* \"#utility.yul\":3301:3304   */\n      0x00\n        /* \"#utility.yul\":3329:3367   */\n      tag_109\n        /* \"#utility.yul\":3361:3366   */\n      dup3\n        /* \"#utility.yul\":3329:3367   */\n      tag_57\n      jump\t// in\n    tag_109:\n        /* \"#utility.yul\":3383:3471   */\n      tag_110\n        /* \"#utility.yul\":3464:3470   */\n      dup2\n        /* \"#utility.yul\":3459:3462   */\n      dup6\n        /* \"#utility.yul\":3383:3471   */\n      tag_58\n      jump\t// in\n    tag_110:\n        /* \"#utility.yul\":3376:3471   */\n      swap4\n      pop\n        /* \"#utility.yul\":3480:3545   */\n      tag_111\n        /* \"#utility.yul\":3538:3544   */\n      dup2\n        /* \"#utility.yul\":3533:3536   */\n      dup6\n        /* \"#utility.yul\":3526:3530   */\n      0x20\n        /* \"#utility.yul\":3519:3524   */\n      dup7\n        /* \"#utility.yul\":3515:3531   */\n      add\n        /* \"#utility.yul\":3480:3545   */\n      tag_59\n      jump\t// in\n    tag_111:\n        /* \"#utility.yul\":3570:3576   */\n      dup1\n        /* \"#utility.yul\":3565:3568   */\n      dup5\n        /* \"#utility.yul\":3561:3577   */\n      add\n        /* \"#utility.yul\":3554:3577   */\n      swap2\n      pop\n        /* \"#utility.yul\":3305:3583   */\n      pop\n        /* \"#utility.yul\":3197:3583   */\n      swap3\n      swap2\n      pop\n      pop\n      jump\t// out\n        /* \"#utility.yul\":3589:3860   */\n    tag_22:\n        /* \"#utility.yul\":3719:3722   */\n      0x00\n        /* \"#utility.yul\":3741:3834   */\n      tag_113\n        /* \"#utility.yul\":3830:3833   */\n      dup3\n        /* \"#utility.yul\":3821:3827   */\n      dup5\n        /* \"#utility.yul\":3741:3834   */\n      tag_60\n      jump\t// in\n    tag_113:\n        /* \"#utility.yul\":3734:3834   */\n      swap2\n      pop\n        /* \"#utility.yul\":3851:3854   */\n      dup2\n        /* \"#utility.yul\":3844:3854   */\n      swap1\n      pop\n        /* \"#utility.yul\":3589:3860   */\n      swap3\n      swap2\n      pop\n      pop\n      jump\t// out\n        /* \"#utility.yul\":3866:3956   */\n    tag_61:\n        /* \"#utility.yul\":3900:3907   */\n      0x00\n        /* \"#utility.yul\":3943:3948   */\n      dup2\n        /* \"#utility.yul\":3936:3949   */\n      iszero\n        /* \"#utility.yul\":3929:3950   */\n      iszero\n        /* \"#utility.yul\":3918:3950   */\n      swap1\n      pop\n        /* \"#utility.yul\":3866:3956   */\n      swap2\n      swap1\n      pop\n      jump\t// out\n        /* \"#utility.yul\":3962:4071   */\n    tag_62:\n        /* \"#utility.yul\":4043:4064   */\n      tag_116\n        /* \"#utility.yul\":4058:4063   */\n      dup2\n        /* \"#utility.yul\":4043:4064   */\n      tag_61\n      jump\t// in\n    tag_116:\n        /* \"#utility.yul\":4038:4041   */\n      dup3\n        /* \"#utility.yul\":4031:4065   */\n      mstore\n        /* \"#utility.yul\":3962:4071   */\n      pop\n      pop\n      jump\t// out\n        /* \"#utility.yul\":4077:4245   */\n    tag_63:\n        /* \"#utility.yul\":4160:4171   */\n      0x00\n        /* \"#utility.yul\":4194:4200   */\n      dup3\n        /* \"#utility.yul\":4189:4192   */\n      dup3\n        /* \"#utility.yul\":4182:4201   */\n      mstore\n        /* \"#utility.yul\":4234:4238   */\n      0x20\n        /* \"#utility.yul\":4229:4232   */\n      dup3\n        /* \"#utility.yul\":4225:4239   */\n      add\n        /* \"#utility.yul\":4210:4239   */\n      swap1\n      pop\n        /* \"#utility.yul\":4077:4245   */\n      swap3\n      swap2\n      pop\n      pop\n      jump\t// out\n        /* \"#utility.yul\":4251:4353   */\n    tag_64:\n        /* \"#utility.yul\":4292:4298   */\n      0x00\n        /* \"#utility.yul\":4343:4345   */\n      0x1f\n        /* \"#utility.yul\":4339:4346   */\n      not\n        /* \"#utility.yul\":4334:4336   */\n      0x1f\n        /* \"#utility.yul\":4327:4332   */\n      dup4\n        /* \"#utility.yul\":4323:4337   */\n      add\n        /* \"#utility.yul\":4319:4347   */\n      and\n        /* \"#utility.yul\":4309:4347   */\n      swap1\n      pop\n        /* \"#utility.yul\":4251:4353   */\n      swap2\n      swap1\n      pop\n      jump\t// out\n        /* \"#utility.yul\":4359:4732   */\n    tag_65:\n        /* \"#utility.yul\":4445:4448   */\n      0x00\n        /* \"#utility.yul\":4473:4511   */\n      tag_120\n        /* \"#utility.yul\":4505:4510   */\n      dup3\n        /* \"#utility.yul\":4473:4511   */\n      tag_57\n      jump\t// in\n    tag_120:\n        /* \"#utility.yul\":4527:4597   */\n      tag_121\n        /* \"#utility.yul\":4590:4596   */\n      dup2\n        /* \"#utility.yul\":4585:4588   */\n      dup6\n        /* \"#utility.yul\":4527:4597   */\n      tag_63\n      jump\t// in\n    tag_121:\n        /* \"#utility.yul\":4520:4597   */\n      swap4\n      pop\n        /* \"#utility.yul\":4606:4671   */\n      tag_122\n        /* \"#utility.yul\":4664:4670   */\n      dup2\n        /* \"#utility.yul\":4659:4662   */\n      dup6\n        /* \"#utility.yul\":4652:4656   */\n      0x20\n        /* \"#utility.yul\":4645:4650   */\n      dup7\n        /* \"#utility.yul\":4641:4657   */\n      add\n        /* \"#utility.yul\":4606:4671   */\n      tag_59\n      jump\t// in\n    tag_122:\n        /* \"#utility.yul\":4696:4725   */\n      tag_123\n        /* \"#utility.yul\":4718:4724   */\n      dup2\n        /* \"#utility.yul\":4696:4725   */\n      tag_64\n      jump\t// in\n    tag_123:\n        /* \"#utility.yul\":4691:4694   */\n      dup5\n        /* \"#utility.yul\":4687:4726   */\n      add\n        /* \"#utility.yul\":4680:4726   */\n      swap2\n      pop\n        /* \"#utility.yul\":4449:4732   */\n      pop\n        /* \"#utility.yul\":4359:4732   */\n      swap3\n      swap2\n      pop\n      pop\n      jump\t// out\n        /* \"#utility.yul\":4738:5145   */\n    tag_27:\n        /* \"#utility.yul\":4871:4875   */\n      0x00\n        /* \"#utility.yul\":4909:4911   */\n      0x40\n        /* \"#utility.yul\":4898:4907   */\n      dup3\n        /* \"#utility.yul\":4894:4912   */\n      add\n        /* \"#utility.yul\":4886:4912   */\n      swap1\n      pop\n        /* \"#utility.yul\":4922:4987   */\n      tag_125\n        /* \"#utility.yul\":4984:4985   */\n      0x00\n        /* \"#utility.yul\":4973:4982   */\n      dup4\n        /* \"#utility.yul\":4969:4986   */\n      add\n        /* \"#utility.yul\":4960:4966   */\n      dup6\n        /* \"#utility.yul\":4922:4987   */\n      tag_62\n      jump\t// in\n    tag_125:\n        /* \"#utility.yul\":5034:5043   */\n      dup2\n        /* \"#utility.yul\":5028:5032   */\n      dup2\n        /* \"#utility.yul\":5024:5044   */\n      sub\n        /* \"#utility.yul\":5019:5021   */\n      0x20\n        /* \"#utility.yul\":5008:5017   */\n      dup4\n        /* \"#utility.yul\":5004:5022   */\n      add\n        /* \"#utility.yul\":4997:5045   */\n      mstore\n        /* \"#utility.yul\":5062:5138   */\n      tag_126\n        /* \"#utility.yul\":5133:5137   */\n      dup2\n        /* \"#utility.yul\":5124:5130   */\n      dup5\n        /* \"#utility.yul\":5062:5138   */\n      tag_65\n      jump\t// in\n    tag_126:\n        /* \"#utility.yul\":5054:5138   */\n      swap1\n      pop\n        /* \"#utility.yul\":4738:5145   */\n      swap4\n      swap3\n      pop\n      pop\n      pop\n      jump\t// out\n        /* \"#utility.yul\":5151:5294   */\n    tag_66:\n        /* \"#utility.yul\":5208:5213   */\n      0x00\n        /* \"#utility.yul\":5239:5245   */\n      dup2\n        /* \"#utility.yul\":5233:5246   */\n      mload\n        /* \"#utility.yul\":5224:5246   */\n      swap1\n      pop\n        /* \"#utility.yul\":5255:5288   */\n      tag_128\n        /* \"#utility.yul\":5282:5287   */\n      dup2\n        /* \"#utility.yul\":5255:5288   */\n      tag_54\n      jump\t// in\n    tag_128:\n        /* \"#utility.yul\":5151:5294   */\n      swap3\n      swap2\n      pop\n      pop\n      jump\t// out\n        /* \"#utility.yul\":5300:5651   */\n    tag_42:\n        /* \"#utility.yul\":5370:5376   */\n      0x00\n        /* \"#utility.yul\":5419:5421   */\n      0x20\n        /* \"#utility.yul\":5407:5416   */\n      dup3\n        /* \"#utility.yul\":5398:5405   */\n      dup5\n        /* \"#utility.yul\":5394:5417   */\n      sub\n        /* \"#utility.yul\":5390:5422   */\n      slt\n        /* \"#utility.yul\":5387:5506   */\n      iszero\n      tag_130\n      jumpi\n        /* \"#utility.yul\":5425:5504   */\n      tag_131\n      tag_44\n      jump\t// in\n    tag_131:\n        /* \"#utility.yul\":5387:5506   */\n    tag_130:\n        /* \"#utility.yul\":5545:5546   */\n      0x00\n        /* \"#utility.yul\":5570:5634   */\n      tag_132\n        /* \"#utility.yul\":5626:5633   */\n      dup5\n        /* \"#utility.yul\":5617:5623   */\n      dup3\n        /* \"#utility.yul\":5606:5615   */\n      dup6\n        /* \"#utility.yul\":5602:5624   */\n      add\n        /* \"#utility.yul\":5570:5634   */\n      tag_66\n      jump\t// in\n    tag_132:\n        /* \"#utility.yul\":5560:5634   */\n      swap2\n      pop\n        /* \"#utility.yul\":5516:5644   */\n      pop\n        /* \"#utility.yul\":5300:5651   */\n      swap3\n      swap2\n      pop\n      pop\n      jump\t// out\n\n    auxdata: 0xa2646970667358221220a60544b483b07759f11f6a7d662dc84f1c79e02ba8d22c7bfbedf9ee3a8519a664736f6c634300081a0033\n}\n",
				"bytecode": {
					"linkReferences": {},
					"object": "6080604052348015600e575f80fd5b506107368061001c5f395ff3fe608060405260043610610033575f3560e01c80630c49c74b146100375780633ca065bb1461005f57806366563e691461007b575b5f80fd5b348015610042575f80fd5b5061005d600480360381019061005891906104ba565b6100b7565b005b61007960048036038101906100749190610553565b6101e1565b005b348015610086575f80fd5b506100a1600480360381019061009c91906104ba565b610319565b6040516100ae91906105a0565b60405180910390f35b5f808273ffffffffffffffffffffffffffffffffffffffff166040516024016040516020818303038152906040527f2fbebd38000000000000000000000000000000000000000000000000000000007bffffffffffffffffffffffffffffffffffffffffffffffffffffffff19166020820180517bffffffffffffffffffffffffffffffffffffffffffffffffffffffff8381831617835250505050604051610160919061060b565b5f604051808303815f865af19150503d805f8114610199576040519150601f19603f3d011682016040523d82523d5f602084013e61019e565b606091505b50915091507f13848c3e38f8886f3f5d2ad9dff80d8092c2bbb8efd5b887a99c2c6cfc09ac2a82826040516101d4929190610693565b60405180910390a1505050565b5f808373ffffffffffffffffffffffffffffffffffffffff16348460405160240161020c91906105a0565b6040516020818303038152906040527f4018d9aa000000000000000000000000000000000000000000000000000000007bffffffffffffffffffffffffffffffffffffffffffffffffffffffff19166020820180517bffffffffffffffffffffffffffffffffffffffffffffffffffffffff8381831617835250505050604051610296919061060b565b5f6040518083038185875af1925050503d805f81146102d0576040519150601f19603f3d011682016040523d82523d5f602084013e6102d5565b606091505b50915091507f13848c3e38f8886f3f5d2ad9dff80d8092c2bbb8efd5b887a99c2c6cfc09ac2a828260405161030b929190610693565b60405180910390a150505050565b5f805f8373ffffffffffffffffffffffffffffffffffffffff166040516024016040516020818303038152906040527f5197c7aa000000000000000000000000000000000000000000000000000000007bffffffffffffffffffffffffffffffffffffffffffffffffffffffff19166020820180517bffffffffffffffffffffffffffffffffffffffffffffffffffffffff83818316178352505050506040516103c3919061060b565b5f604051808303815f865af19150503d805f81146103fc576040519150601f19603f3d011682016040523d82523d5f602084013e610401565b606091505b50915091507f13848c3e38f8886f3f5d2ad9dff80d8092c2bbb8efd5b887a99c2c6cfc09ac2a8282604051610437929190610693565b60405180910390a18080602001905181019061045391906106d5565b92505050919050565b5f80fd5b5f73ffffffffffffffffffffffffffffffffffffffff82169050919050565b5f61048982610460565b9050919050565b6104998161047f565b81146104a3575f80fd5b50565b5f813590506104b481610490565b92915050565b5f602082840312156104cf576104ce61045c565b5b5f6104dc848285016104a6565b91505092915050565b5f6104ef82610460565b9050919050565b6104ff816104e5565b8114610509575f80fd5b50565b5f8135905061051a816104f6565b92915050565b5f819050919050565b61053281610520565b811461053c575f80fd5b50565b5f8135905061054d81610529565b92915050565b5f80604083850312156105695761056861045c565b5b5f6105768582860161050c565b92505060206105878582860161053f565b9150509250929050565b61059a81610520565b82525050565b5f6020820190506105b35f830184610591565b92915050565b5f81519050919050565b5f81905092915050565b8281835e5f83830152505050565b5f6105e5826105b9565b6105ef81856105c3565b93506105ff8185602086016105cd565b80840191505092915050565b5f61061682846105db565b915081905092915050565b5f8115159050919050565b61063581610621565b82525050565b5f82825260208201905092915050565b5f601f19601f8301169050919050565b5f610665826105b9565b61066f818561063b565b935061067f8185602086016105cd565b6106888161064b565b840191505092915050565b5f6040820190506106a65f83018561062c565b81810360208301526106b8818461065b565b90509392505050565b5f815190506106cf81610529565b92915050565b5f602082840312156106ea576106e961045c565b5b5f6106f7848285016106c1565b9150509291505056fea2646970667358221220a60544b483b07759f11f6a7d662dc84f1c79e02ba8d22c7bfbedf9ee3a8519a664736f6c634300081a0033",
					"opcodes": "PUSH1 0x80 PUSH1 0x40 MSTORE CALLVALUE DUP1 ISZERO PUSH1 0xE JUMPI PUSH0 DUP1 REVERT JUMPDEST POP PUSH2 0x736 DUP1 PUSH2 0x1C PUSH0 CODECOPY PUSH0 RETURN INVALID PUSH1 0x80 PUSH1 0x40 MSTORE PUSH1 0x4 CALLDATASIZE LT PUSH2 0x33 JUMPI PUSH0 CALLDATALOAD PUSH1 0xE0 SHR DUP1 PUSH4 0xC49C74B EQ PUSH2 0x37 JUMPI DUP1 PUSH4 0x3CA065BB EQ PUSH2 0x5F JUMPI DUP1 PUSH4 0x66563E69 EQ PUSH2 0x7B JUMPI JUMPDEST PUSH0 DUP1 REVERT JUMPDEST CALLVALUE DUP1 ISZERO PUSH2 0x42 JUMPI PUSH0 DUP1 REVERT JUMPDEST POP PUSH2 0x5D PUSH1 0x4 DUP1 CALLDATASIZE SUB DUP2 ADD SWAP1 PUSH2 0x58 SWAP2 SWAP1 PUSH2 0x4BA JUMP JUMPDEST PUSH2 0xB7 JUMP JUMPDEST STOP JUMPDEST PUSH2 0x79 PUSH1 0x4 DUP1 CALLDATASIZE SUB DUP2 ADD SWAP1 PUSH2 0x74 SWAP2 SWAP1 PUSH2 0x553 JUMP JUMPDEST PUSH2 0x1E1 JUMP JUMPDEST STOP JUMPDEST CALLVALUE DUP1 ISZERO PUSH2 0x86 JUMPI PUSH0 DUP1 REVERT JUMPDEST POP PUSH2 0xA1 PUSH1 0x4 DUP1 CALLDATASIZE SUB DUP2 ADD SWAP1 PUSH2 0x9C SWAP2 SWAP1 PUSH2 0x4BA JUMP JUMPDEST PUSH2 0x319 JUMP JUMPDEST PUSH1 0x40 MLOAD PUSH2 0xAE SWAP2 SWAP1 PUSH2 0x5A0 JUMP JUMPDEST PUSH1 0x40 MLOAD DUP1 SWAP2 SUB SWAP1 RETURN JUMPDEST PUSH0 DUP1 DUP3 PUSH20 0xFFFFFFFFFFFFFFFFFFFFFFFFFFFFFFFFFFFFFFFF AND PUSH1 0x40 MLOAD PUSH1 0x24 ADD PUSH1 0x40 MLOAD PUSH1 0x20 DUP2 DUP4 SUB SUB DUP2 MSTORE SWAP1 PUSH1 0x40 MSTORE PUSH32 0x2FBEBD3800000000000000000000000000000000000000000000000000000000 PUSH28 0xFFFFFFFFFFFFFFFFFFFFFFFFFFFFFFFFFFFFFFFFFFFFFFFFFFFFFFFF NOT AND PUSH1 0x20 DUP3 ADD DUP1 MLOAD PUSH28 0xFFFFFFFFFFFFFFFFFFFFFFFFFFFFFFFFFFFFFFFFFFFFFFFFFFFFFFFF DUP4 DUP2 DUP4 AND OR DUP4 MSTORE POP POP POP POP PUSH1 0x40 MLOAD PUSH2 0x160 SWAP2 SWAP1 PUSH2 0x60B JUMP JUMPDEST PUSH0 PUSH1 0x40 MLOAD DUP1 DUP4 SUB DUP2 PUSH0 DUP7 GAS CALL SWAP2 POP POP RETURNDATASIZE DUP1 PUSH0 DUP2 EQ PUSH2 0x199 JUMPI PUSH1 0x40 MLOAD SWAP2 POP PUSH1 0x1F NOT PUSH1 0x3F RETURNDATASIZE ADD AND DUP3 ADD PUSH1 0x40 MSTORE RETURNDATASIZE DUP3 MSTORE RETURNDATASIZE PUSH0 PUSH1 0x20 DUP5 ADD RETURNDATACOPY PUSH2 0x19E JUMP JUMPDEST PUSH1 0x60 SWAP2 POP JUMPDEST POP SWAP2 POP SWAP2 POP PUSH32 0x13848C3E38F8886F3F5D2AD9DFF80D8092C2BBB8EFD5B887A99C2C6CFC09AC2A DUP3 DUP3 PUSH1 0x40 MLOAD PUSH2 0x1D4 SWAP3 SWAP2 SWAP1 PUSH2 0x693 JUMP JUMPDEST PUSH1 0x40 MLOAD DUP1 SWAP2 SUB SWAP1 LOG1 POP POP POP JUMP JUMPDEST PUSH0 DUP1 DUP4 PUSH20 0xFFFFFFFFFFFFFFFFFFFFFFFFFFFFFFFFFFFFFFFF AND CALLVALUE DUP5 PUSH1 0x40 MLOAD PUSH1 0x24 ADD PUSH2 0x20C SWAP2 SWAP1 PUSH2 0x5A0 JUMP JUMPDEST PUSH1 0x40 MLOAD PUSH1 0x20 DUP2 DUP4 SUB SUB DUP2 MSTORE SWAP1 PUSH1 0x40 MSTORE PUSH32 0x4018D9AA00000000000000000000000000000000000000000000000000000000 PUSH28 0xFFFFFFFFFFFFFFFFFFFFFFFFFFFFFFFFFFFFFFFFFFFFFFFFFFFFFFFF NOT AND PUSH1 0x20 DUP3 ADD DUP1 MLOAD PUSH28 0xFFFFFFFFFFFFFFFFFFFFFFFFFFFFFFFFFFFFFFFFFFFFFFFFFFFFFFFF DUP4 DUP2 DUP4 AND OR DUP4 MSTORE POP POP POP POP PUSH1 0x40 MLOAD PUSH2 0x296 SWAP2 SWAP1 PUSH2 0x60B JUMP JUMPDEST PUSH0 PUSH1 0x40 MLOAD DUP1 DUP4 SUB DUP2 DUP6 DUP8 GAS CALL SWAP3 POP POP POP RETURNDATASIZE DUP1 PUSH0 DUP2 EQ PUSH2 0x2D0 JUMPI PUSH1 0x40 MLOAD SWAP2 POP PUSH1 0x1F NOT PUSH1 0x3F RETURNDATASIZE ADD AND DUP3 ADD PUSH1 0x40 MSTORE RETURNDATASIZE DUP3 MSTORE RETURNDATASIZE PUSH0 PUSH1 0x20 DUP5 ADD RETURNDATACOPY PUSH2 0x2D5 JUMP JUMPDEST PUSH1 0x60 SWAP2 POP JUMPDEST POP SWAP2 POP SWAP2 POP PUSH32 0x13848C3E38F8886F3F5D2AD9DFF80D8092C2BBB8EFD5B887A99C2C6CFC09AC2A DUP3 DUP3 PUSH1 0x40 MLOAD PUSH2 0x30B SWAP3 SWAP2 SWAP1 PUSH2 0x693 JUMP JUMPDEST PUSH1 0x40 MLOAD DUP1 SWAP2 SUB SWAP1 LOG1 POP POP POP POP JUMP JUMPDEST PUSH0 DUP1 PUSH0 DUP4 PUSH20 0xFFFFFFFFFFFFFFFFFFFFFFFFFFFFFFFFFFFFFFFF AND PUSH1 0x40 MLOAD PUSH1 0x24 ADD PUSH1 0x40 MLOAD PUSH1 0x20 DUP2 DUP4 SUB SUB DUP2 MSTORE SWAP1 PUSH1 0x40 MSTORE PUSH32 0x5197C7AA00000000000000000000000000000000000000000000000000000000 PUSH28 0xFFFFFFFFFFFFFFFFFFFFFFFFFFFFFFFFFFFFFFFFFFFFFFFFFFFFFFFF NOT AND PUSH1 0x20 DUP3 ADD DUP1 MLOAD PUSH28 0xFFFFFFFFFFFFFFFFFFFFFFFFFFFFFFFFFFFFFFFFFFFFFFFFFFFFFFFF DUP4 DUP2 DUP4 AND OR DUP4 MSTORE POP POP POP POP PUSH1 0x40 MLOAD PUSH2 0x3C3 SWAP2 SWAP1 PUSH2 0x60B JUMP JUMPDEST PUSH0 PUSH1 0x40 MLOAD DUP1 DUP4 SUB DUP2 PUSH0 DUP7 GAS CALL SWAP2 POP POP RETURNDATASIZE DUP1 PUSH0 DUP2 EQ PUSH2 0x3FC JUMPI PUSH1 0x40 MLOAD SWAP2 POP PUSH1 0x1F NOT PUSH1 0x3F RETURNDATASIZE ADD AND DUP3 ADD PUSH1 0x40 MSTORE RETURNDATASIZE DUP3 MSTORE RETURNDATASIZE PUSH0 PUSH1 0x20 DUP5 ADD RETURNDATACOPY PUSH2 0x401 JUMP JUMPDEST PUSH1 0x60 SWAP2 POP JUMPDEST POP SWAP2 POP SWAP2 POP PUSH32 0x13848C3E38F8886F3F5D2AD9DFF80D8092C2BBB8EFD5B887A99C2C6CFC09AC2A DUP3 DUP3 PUSH1 0x40 MLOAD PUSH2 0x437 SWAP3 SWAP2 SWAP1 PUSH2 0x693 JUMP JUMPDEST PUSH1 0x40 MLOAD DUP1 SWAP2 SUB SWAP1 LOG1 DUP1 DUP1 PUSH1 0x20 ADD SWAP1 MLOAD DUP2 ADD SWAP1 PUSH2 0x453 SWAP2 SWAP1 PUSH2 0x6D5 JUMP JUMPDEST SWAP3 POP POP POP SWAP2 SWAP1 POP JUMP JUMPDEST PUSH0 DUP1 REVERT JUMPDEST PUSH0 PUSH20 0xFFFFFFFFFFFFFFFFFFFFFFFFFFFFFFFFFFFFFFFF DUP3 AND SWAP1 POP SWAP2 SWAP1 POP JUMP JUMPDEST PUSH0 PUSH2 0x489 DUP3 PUSH2 0x460 JUMP JUMPDEST SWAP1 POP SWAP2 SWAP1 POP JUMP JUMPDEST PUSH2 0x499 DUP2 PUSH2 0x47F JUMP JUMPDEST DUP2 EQ PUSH2 0x4A3 JUMPI PUSH0 DUP1 REVERT JUMPDEST POP JUMP JUMPDEST PUSH0 DUP2 CALLDATALOAD SWAP1 POP PUSH2 0x4B4 DUP2 PUSH2 0x490 JUMP JUMPDEST SWAP3 SWAP2 POP POP JUMP JUMPDEST PUSH0 PUSH1 0x20 DUP3 DUP5 SUB SLT ISZERO PUSH2 0x4CF JUMPI PUSH2 0x4CE PUSH2 0x45C JUMP JUMPDEST JUMPDEST PUSH0 PUSH2 0x4DC DUP5 DUP3 DUP6 ADD PUSH2 0x4A6 JUMP JUMPDEST SWAP2 POP POP SWAP3 SWAP2 POP POP JUMP JUMPDEST PUSH0 PUSH2 0x4EF DUP3 PUSH2 0x460 JUMP JUMPDEST SWAP1 POP SWAP2 SWAP1 POP JUMP JUMPDEST PUSH2 0x4FF DUP2 PUSH2 0x4E5 JUMP JUMPDEST DUP2 EQ PUSH2 0x509 JUMPI PUSH0 DUP1 REVERT JUMPDEST POP JUMP JUMPDEST PUSH0 DUP2 CALLDATALOAD SWAP1 POP PUSH2 0x51A DUP2 PUSH2 0x4F6 JUMP JUMPDEST SWAP3 SWAP2 POP POP JUMP JUMPDEST PUSH0 DUP2 SWAP1 POP SWAP2 SWAP1 POP JUMP JUMPDEST PUSH2 0x532 DUP2 PUSH2 0x520 JUMP JUMPDEST DUP2 EQ PUSH2 0x53C JUMPI PUSH0 DUP1 REVERT JUMPDEST POP JUMP JUMPDEST PUSH0 DUP2 CALLDATALOAD SWAP1 POP PUSH2 0x54D DUP2 PUSH2 0x529 JUMP JUMPDEST SWAP3 SWAP2 POP POP JUMP JUMPDEST PUSH0 DUP1 PUSH1 0x40 DUP4 DUP6 SUB SLT ISZERO PUSH2 0x569 JUMPI PUSH2 0x568 PUSH2 0x45C JUMP JUMPDEST JUMPDEST PUSH0 PUSH2 0x576 DUP6 DUP3 DUP7 ADD PUSH2 0x50C JUMP JUMPDEST SWAP3 POP POP PUSH1 0x20 PUSH2 0x587 DUP6 DUP3 DUP7 ADD PUSH2 0x53F JUMP JUMPDEST SWAP2 POP POP SWAP3 POP SWAP3 SWAP1 POP JUMP JUMPDEST PUSH2 0x59A DUP2 PUSH2 0x520 JUMP JUMPDEST DUP3 MSTORE POP POP JUMP JUMPDEST PUSH0 PUSH1 0x20 DUP3 ADD SWAP1 POP PUSH2 0x5B3 PUSH0 DUP4 ADD DUP5 PUSH2 0x591 JUMP JUMPDEST SWAP3 SWAP2 POP POP JUMP JUMPDEST PUSH0 DUP2 MLOAD SWAP1 POP SWAP2 SWAP1 POP JUMP JUMPDEST PUSH0 DUP2 SWAP1 POP SWAP3 SWAP2 POP POP JUMP JUMPDEST DUP3 DUP2 DUP4 MCOPY PUSH0 DUP4 DUP4 ADD MSTORE POP POP POP JUMP JUMPDEST PUSH0 PUSH2 0x5E5 DUP3 PUSH2 0x5B9 JUMP JUMPDEST PUSH2 0x5EF DUP2 DUP6 PUSH2 0x5C3 JUMP JUMPDEST SWAP4 POP PUSH2 0x5FF DUP2 DUP6 PUSH1 0x20 DUP7 ADD PUSH2 0x5CD JUMP JUMPDEST DUP1 DUP5 ADD SWAP2 POP POP SWAP3 SWAP2 POP POP JUMP JUMPDEST PUSH0 PUSH2 0x616 DUP3 DUP5 PUSH2 0x5DB JUMP JUMPDEST SWAP2 POP DUP2 SWAP1 POP SWAP3 SWAP2 POP POP JUMP JUMPDEST PUSH0 DUP2 ISZERO ISZERO SWAP1 POP SWAP2 SWAP1 POP JUMP JUMPDEST PUSH2 0x635 DUP2 PUSH2 0x621 JUMP JUMPDEST DUP3 MSTORE POP POP JUMP JUMPDEST PUSH0 DUP3 DUP3 MSTORE PUSH1 0x20 DUP3 ADD SWAP1 POP SWAP3 SWAP2 POP POP JUMP JUMPDEST PUSH0 PUSH1 0x1F NOT PUSH1 0x1F DUP4 ADD AND SWAP1 POP SWAP2 SWAP1 POP JUMP JUMPDEST PUSH0 PUSH2 0x665 DUP3 PUSH2 0x5B9 JUMP JUMPDEST PUSH2 0x66F DUP2 DUP6 PUSH2 0x63B JUMP JUMPDEST SWAP4 POP PUSH2 0x67F DUP2 DUP6 PUSH1 0x20 DUP7 ADD PUSH2 0x5CD JUMP JUMPDEST PUSH2 0x688 DUP2 PUSH2 0x64B JUMP JUMPDEST DUP5 ADD SWAP2 POP POP SWAP3 SWAP2 POP POP JUMP JUMPDEST PUSH0 PUSH1 0x40 DUP3 ADD SWAP1 POP PUSH2 0x6A6 PUSH0 DUP4 ADD DUP6 PUSH2 0x62C JUMP JUMPDEST DUP2 DUP2 SUB PUSH1 0x20 DUP4 ADD MSTORE PUSH2 0x6B8 DUP2 DUP5 PUSH2 0x65B JUMP JUMPDEST SWAP1 POP SWAP4 SWAP3 POP POP POP JUMP JUMPDEST PUSH0 DUP2 MLOAD SWAP1 POP PUSH2 0x6CF DUP2 PUSH2 0x529 JUMP JUMPDEST SWAP3 SWAP2 POP POP JUMP JUMPDEST PUSH0 PUSH1 0x20 DUP3 DUP5 SUB SLT ISZERO PUSH2 0x6EA JUMPI PUSH2 0x6E9 PUSH2 0x45C JUMP JUMPDEST JUMPDEST PUSH0 PUSH2 0x6F7 DUP5 DUP3 DUP6 ADD PUSH2 0x6C1 JUMP JUMPDEST SWAP2 POP POP SWAP3 SWAP2 POP POP JUMP INVALID LOG2 PUSH5 0x6970667358 0x22 SLT KECCAK256 0xA6 SDIV PREVRANDAO 0xB4 DUP4 0xB0 PUSH24 0x59F11F6A7D662DC84F1C79E02BA8D22C7BFBEDF9EE3A8519 0xA6 PUSH5 0x736F6C6343 STOP ADDMOD BYTE STOP CALLER "
				},
				"gasEstimates": {
					"creation": {
						"codeDepositCost": "369200",
						"executionCost": "403",
						"totalCost": "369603"
					},
					"external": {
						"callGetX(address)": "infinite",
						"callNonExist(address)": "infinite",
						"callSetX(address,uint256)": "infinite"
					}
				},
				"methodIdentifiers": {
					"callGetX(address)": "66563e69",
					"callNonExist(address)": "0c49c74b",
					"callSetX(address,uint256)": "3ca065bb"
				}
			},
			"storageLayout": {
				"storage": [],
				"types": null
			},
			"userdoc": {
				"kind": "user",
				"methods": {},
				"version": 1
			}
		}
	}
}