{
	"data": {
		"bytecode": {
			"linkReferences": {},
			"object": "6080604052348015600e575f80fd5b506102f28061001c5f395ff3fe608060405234801561000f575f80fd5b506004361061004a575f3560e01c80633dece5111461004e5780636f5903301461006e5780638552dc0814610078578063e61e400814610098575b5f80fd5b6100566100b8565b60405161006593929190610287565b60405180910390f35b6100766100ef565b005b610080610122565b60405161008f93929190610287565b60405180910390f35b6100a0610158565b6040516100af93929190610287565b60405180910390f35b5f806100c261018e565b60029250600191506040518060600160405280600381526020016002815260200160018152509050909192565b5f806100f961018e565b6101016100b8565b8093508194508295505050506101156100b8565b9091505080925050505050565b5f8061012c61018e565b600180604051806060016040528060018152602001600281526020016005815250925092509250909192565b5f8061016261018e565b600180604051806060016040528060018152602001600281526020016005815250925092509250909192565b6040518060600160405280600390602082028036833780820191505090505090565b5f819050919050565b6101c2816101b0565b82525050565b5f8115159050919050565b6101dc816101c8565b82525050565b5f60039050919050565b5f81905092915050565b5f819050919050565b610208816101b0565b82525050565b5f61021983836101ff565b60208301905092915050565b5f602082019050919050565b61023a816101e2565b61024481846101ec565b925061024f826101f6565b805f5b8381101561027f578151610266878261020e565b965061027183610225565b925050600181019050610252565b505050505050565b5f60a08201905061029a5f8301866101b9565b6102a760208301856101d3565b6102b46040830184610231565b94935050505056fea26469706673582212206ae52a78a52c74c9814380ae64013ba9d46877aa22bd7eab9b48d07f1cf6722764736f6c634300081a0033",
			"opcodes": "PUSH1 0x80 PUSH1 0x40 MSTORE CALLVALUE DUP1 ISZERO PUSH1 0xE JUMPI PUSH0 DUP1 REVERT JUMPDEST POP PUSH2 0x2F2 DUP1 PUSH2 0x1C PUSH0 CODECOPY PUSH0 RETURN INVALID PUSH1 0x80 PUSH1 0x40 MSTORE CALLVALUE DUP1 ISZERO PUSH2 0xF JUMPI PUSH0 DUP1 REVERT JUMPDEST POP PUSH1 0x4 CALLDATASIZE LT PUSH2 0x4A JUMPI PUSH0 CALLDATALOAD PUSH1 0xE0 SHR DUP1 PUSH4 0x3DECE511 EQ PUSH2 0x4E JUMPI DUP1 PUSH4 0x6F590330 EQ PUSH2 0x6E JUMPI DUP1 PUSH4 0x8552DC08 EQ PUSH2 0x78 JUMPI DUP1 PUSH4 0xE61E4008 EQ PUSH2 0x98 JUMPI JUMPDEST PUSH0 DUP1 REVERT JUMPDEST PUSH2 0x56 PUSH2 0xB8 JUMP JUMPDEST PUSH1 0x40 MLOAD PUSH2 0x65 SWAP4 SWAP3 SWAP2 SWAP1 PUSH2 0x287 JUMP JUMPDEST PUSH1 0x40 MLOAD DUP1 SWAP2 SUB SWAP1 RETURN JUMPDEST PUSH2 0x76 PUSH2 0xEF JUMP JUMPDEST STOP JUMPDEST PUSH2 0x80 PUSH2 0x122 JUMP JUMPDEST PUSH1 0x40 MLOAD PUSH2 0x8F SWAP4 SWAP3 SWAP2 SWAP1 PUSH2 0x287 JUMP JUMPDEST PUSH1 0x40 MLOAD DUP1 SWAP2 SUB SWAP1 RETURN JUMPDEST PUSH2 0xA0 PUSH2 0x158 JUMP JUMPDEST PUSH1 0x40 MLOAD PUSH2 0xAF SWAP4 SWAP3 SWAP2 SWAP1 PUSH2 0x287 JUMP JUMPDEST PUSH1 0x40 MLOAD DUP1 SWAP2 SUB SWAP1 RETURN JUMPDEST PUSH0 DUP1 PUSH2 0xC2 PUSH2 0x18E JUMP JUMPDEST PUSH1 0x2 SWAP3 POP PUSH1 0x1 SWAP2 POP PUSH1 0x40 MLOAD DUP1 PUSH1 0x60 ADD PUSH1 0x40 MSTORE DUP1 PUSH1 0x3 DUP2 MSTORE PUSH1 0x20 ADD PUSH1 0x2 DUP2 MSTORE PUSH1 0x20 ADD PUSH1 0x1 DUP2 MSTORE POP SWAP1 POP SWAP1 SWAP2 SWAP3 JUMP JUMPDEST PUSH0 DUP1 PUSH2 0xF9 PUSH2 0x18E JUMP JUMPDEST PUSH2 0x101 PUSH2 0xB8 JUMP JUMPDEST DUP1 SWAP4 POP DUP2 SWAP5 POP DUP3 SWAP6 POP POP POP POP PUSH2 0x115 PUSH2 0xB8 JUMP JUMPDEST SWAP1 SWAP2 POP POP DUP1 SWAP3 POP POP POP POP POP JUMP JUMPDEST PUSH0 DUP1 PUSH2 0x12C PUSH2 0x18E JUMP JUMPDEST PUSH1 0x1 DUP1 PUSH1 0x40 MLOAD DUP1 PUSH1 0x60 ADD PUSH1 0x40 MSTORE DUP1 PUSH1 0x1 DUP2 MSTORE PUSH1 0x20 ADD PUSH1 0x2 DUP2 MSTORE PUSH1 0x20 ADD PUSH1 0x5 DUP2 MSTORE POP SWAP3 POP SWAP3 POP SWAP3 POP SWAP1 SWAP2 SWAP3 JUMP JUMPDEST PUSH0 DUP1 PUSH2 0x162 PUSH2 0x18E JUMP JUMPDEST PUSH1 0x1 DUP1 PUSH1 0x40 MLOAD DUP1 PUSH1 0x60 ADD PUSH1 0x40 MSTORE DUP1 PUSH1 0x1 DUP2 MSTORE PUSH1 0x20 ADD PUSH1 0x2 DUP2 MSTORE PUSH1 0x20 ADD PUSH1 0x5 DUP2 MSTORE POP SWAP3 POP SWAP3 POP SWAP3 POP SWAP1 SWAP2 SWAP3 JUMP JUMPDEST PUSH1 0x40 MLOAD DUP1 PUSH1 0x60 ADD PUSH1 0x40 MSTORE DUP1 PUSH1 0x3 SWAP1 PUSH1 0x20 DUP3 MUL DUP1 CALLDATASIZE DUP4 CALLDATACOPY DUP1 DUP3 ADD SWAP2 POP POP SWAP1 POP POP SWAP1 JUMP JUMPDEST PUSH0 DUP2 SWAP1 POP SWAP2 SWAP1 POP JUMP JUMPDEST PUSH2 0x1C2 DUP2 PUSH2 0x1B0 JUMP JUMPDEST DUP3 MSTORE POP POP JUMP JUMPDEST PUSH0 DUP2 ISZERO ISZERO SWAP1 POP SWAP2 SWAP1 POP JUMP JUMPDEST PUSH2 0x1DC DUP2 PUSH2 0x1C8 JUMP JUMPDEST DUP3 MSTORE POP POP JUMP JUMPDEST PUSH0 PUSH1 0x3 SWAP1 POP SWAP2 SWAP1 POP JUMP JUMPDEST PUSH0 DUP2 SWAP1 POP SWAP3 SWAP2 POP POP JUMP JUMPDEST PUSH0 DUP2 SWAP1 POP SWAP2 SWAP1 POP JUMP JUMPDEST PUSH2 0x208 DUP2 PUSH2 0x1B0 JUMP JUMPDEST DUP3 MSTORE POP POP JUMP JUMPDEST PUSH0 PUSH2 0x219 DUP4 DUP4 PUSH2 0x1FF JUMP JUMPDEST PUSH1 0x20 DUP4 ADD SWAP1 POP SWAP3 SWAP2 POP POP JUMP JUMPDEST PUSH0 PUSH1 0x20 DUP3 ADD SWAP1 POP SWAP2 SWAP1 POP JUMP JUMPDEST PUSH2 0x23A DUP2 PUSH2 0x1E2 JUMP JUMPDEST PUSH2 0x244 DUP2 DUP5 PUSH2 0x1EC JUMP JUMPDEST SWAP3 POP PUSH2 0x24F DUP3 PUSH2 0x1F6 JUMP JUMPDEST DUP1 PUSH0 JUMPDEST DUP4 DUP2 LT ISZERO PUSH2 0x27F JUMPI DUP2 MLOAD PUSH2 0x266 DUP8 DUP3 PUSH2 0x20E JUMP JUMPDEST SWAP7 POP PUSH2 0x271 DUP4 PUSH2 0x225 JUMP JUMPDEST SWAP3 POP POP PUSH1 0x1 DUP2 ADD SWAP1 POP PUSH2 0x252 JUMP JUMPDEST POP POP POP POP POP POP JUMP JUMPDEST PUSH0 PUSH1 0xA0 DUP3 ADD SWAP1 POP PUSH2 0x29A PUSH0 DUP4 ADD DUP7 PUSH2 0x1B9 JUMP JUMPDEST PUSH2 0x2A7 PUSH1 0x20 DUP4 ADD DUP6 PUSH2 0x1D3 JUMP JUMPDEST PUSH2 0x2B4 PUSH1 0x40 DUP4 ADD DUP5 PUSH2 0x231 JUMP JUMPDEST SWAP5 SWAP4 POP POP POP POP JUMP INVALID LOG2 PUSH5 0x6970667358 0x22 SLT KECCAK256 PUSH11 0xE52A78A52C74C9814380AE PUSH5 0x13BA9D468 PUSH24 0xAA22BD7EAB9B48D07F1CF6722764736F6C634300081A0033 "
		},
		"gasEstimates": {
			"creation": {
				"codeDepositCost": "150800",
				"executionCost": "194",
				"totalCost": "150994"
			},
			"external": {
				"readReturn()": "infinite",
				"returnMultiple()": "infinite",
				"returnNamed()": "infinite",
				"returnNamed2()": "infinite"
			}
		},
		"methodIdentifiers": {
			"readReturn()": "6f590330",
			"returnMultiple()": "e61e4008",
			"returnNamed()": "3dece511",
			"returnNamed2()": "8552dc08"
		}
	},
	"abi": [
		{
			"inputs": [],
			"name": "readReturn",
			"outputs": [],
			"stateMutability": "pure",
			"type": "function"
		},
		{
			"inputs": [],
			"name": "returnMultiple",
			"outputs": [
				{
					"internalType": "uint256",
					"name": "",
					"type": "uint256"
				},
				{
					"internalType": "bool",
					"name": "",
					"type": "bool"
				},
				{
					"internalType": "uint256[3]",
					"name": "",
					"type": "uint256[3]"
				}
			],
			"stateMutability": "pure",
			"type": "function"
		},
		{
			"inputs": [],
			"name": "returnNamed",
			"outputs": [
				{
					"internalType": "uint256",
					"name": "_number",
					"type": "uint256"
				},
				{
					"internalType": "bool",
					"name": "_bool",
					"type": "bool"
				},
				{
					"internalType": "uint256[3]",
					"name": "_arry",
					"type": "uint256[3]"
				}
			],
			"stateMutability": "pure",
			"type": "function"
		},
		{
			"inputs": [],
			"name": "returnNamed2",
			"outputs": [
				{
					"internalType": "uint256",
					"name": "_number",
					"type": "uint256"
				},
				{
					"internalType": "bool",
					"name": "_bool",
					"type": "bool"
				},
				{
					"internalType": "uint256[3]",
					"name": "_array",
					"type": "uint256[3]"
				}
			],
			"stateMutability": "pure",
			"type": "function"
		}
	]
}