{
	"data": {
		"bytecode": {
			"linkReferences": {},
			"object": "6080604052348015600e575f80fd5b506101498061001c5f395ff3fe608060405234801561000f575f80fd5b506004361061004a575f3560e01c80631a8d7dc31461004e5780635a4236b1146100585780639ebb8d2014610062578063a8b63e6f1461006c575b5f80fd5b610056610076565b005b61006061008b565b005b61006a6100ba565b005b6100746100e9565b005b60015f80018190555060505f60010181905550565b604051806040016040528060038152602001605a8152505f80820151815f015560208201518160010155905050565b604051806040016040528060048152602001603c8152505f80820151815f015560208201518160010155905050565b600a5f80018190555060325f600101819055505f600b815f0181905550606481600101819055505056fea264697066735822122036c232b829c715d726bc744e4630448ad49d8e588266363c822b5882b59e33de64736f6c634300081a0033",
			"opcodes": "PUSH1 0x80 PUSH1 0x40 MSTORE CALLVALUE DUP1 ISZERO PUSH1 0xE JUMPI PUSH0 DUP1 REVERT JUMPDEST POP PUSH2 0x149 DUP1 PUSH2 0x1C PUSH0 CODECOPY PUSH0 RETURN INVALID PUSH1 0x80 PUSH1 0x40 MSTORE CALLVALUE DUP1 ISZERO PUSH2 0xF JUMPI PUSH0 DUP1 REVERT JUMPDEST POP PUSH1 0x4 CALLDATASIZE LT PUSH2 0x4A JUMPI PUSH0 CALLDATALOAD PUSH1 0xE0 SHR DUP1 PUSH4 0x1A8D7DC3 EQ PUSH2 0x4E JUMPI DUP1 PUSH4 0x5A4236B1 EQ PUSH2 0x58 JUMPI DUP1 PUSH4 0x9EBB8D20 EQ PUSH2 0x62 JUMPI DUP1 PUSH4 0xA8B63E6F EQ PUSH2 0x6C JUMPI JUMPDEST PUSH0 DUP1 REVERT JUMPDEST PUSH2 0x56 PUSH2 0x76 JUMP JUMPDEST STOP JUMPDEST PUSH2 0x60 PUSH2 0x8B JUMP JUMPDEST STOP JUMPDEST PUSH2 0x6A PUSH2 0xBA JUMP JUMPDEST STOP JUMPDEST PUSH2 0x74 PUSH2 0xE9 JUMP JUMPDEST STOP JUMPDEST PUSH1 0x1 PUSH0 DUP1 ADD DUP2 SWAP1 SSTORE POP PUSH1 0x50 PUSH0 PUSH1 0x1 ADD DUP2 SWAP1 SSTORE POP JUMP JUMPDEST PUSH1 0x40 MLOAD DUP1 PUSH1 0x40 ADD PUSH1 0x40 MSTORE DUP1 PUSH1 0x3 DUP2 MSTORE PUSH1 0x20 ADD PUSH1 0x5A DUP2 MSTORE POP PUSH0 DUP1 DUP3 ADD MLOAD DUP2 PUSH0 ADD SSTORE PUSH1 0x20 DUP3 ADD MLOAD DUP2 PUSH1 0x1 ADD SSTORE SWAP1 POP POP JUMP JUMPDEST PUSH1 0x40 MLOAD DUP1 PUSH1 0x40 ADD PUSH1 0x40 MSTORE DUP1 PUSH1 0x4 DUP2 MSTORE PUSH1 0x20 ADD PUSH1 0x3C DUP2 MSTORE POP PUSH0 DUP1 DUP3 ADD MLOAD DUP2 PUSH0 ADD SSTORE PUSH1 0x20 DUP3 ADD MLOAD DUP2 PUSH1 0x1 ADD SSTORE SWAP1 POP POP JUMP JUMPDEST PUSH1 0xA PUSH0 DUP1 ADD DUP2 SWAP1 SSTORE POP PUSH1 0x32 PUSH0 PUSH1 0x1 ADD DUP2 SWAP1 SSTORE POP PUSH0 PUSH1 0xB DUP2 PUSH0 ADD DUP2 SWAP1 SSTORE POP PUSH1 0x64 DUP2 PUSH1 0x1 ADD DUP2 SWAP1 SSTORE POP POP JUMP INVALID LOG2 PUSH5 0x6970667358 0x22 SLT KECCAK256 CALLDATASIZE 0xC2 ORIGIN 0xB8 0x29 0xC7 ISZERO 0xD7 0x26 0xBC PUSH21 0x4E4630448AD49D8E588266363C822B5882B59E33DE PUSH5 0x736F6C6343 STOP ADDMOD BYTE STOP CALLER "
		},
		"gasEstimates": {
			"creation": {
				"codeDepositCost": "65800",
				"executionCost": "115",
				"totalCost": "65915"
			},
			"external": {
				"initStudent1()": "54468",
				"initStudent2()": "44359",
				"initStudent3()": "44452",
				"initStudent4()": "44474"
			}
		},
		"methodIdentifiers": {
			"initStudent1()": "a8b63e6f",
			"initStudent2()": "1a8d7dc3",
			"initStudent3()": "5a4236b1",
			"initStudent4()": "9ebb8d20"
		}
	},
	"abi": [
		{
			"inputs": [],
			"name": "initStudent1",
			"outputs": [],
			"stateMutability": "nonpayable",
			"type": "function"
		},
		{
			"inputs": [],
			"name": "initStudent2",
			"outputs": [],
			"stateMutability": "nonpayable",
			"type": "function"
		},
		{
			"inputs": [],
			"name": "initStudent3",
			"outputs": [],
			"stateMutability": "nonpayable",
			"type": "function"
		},
		{
			"inputs": [],
			"name": "initStudent4",
			"outputs": [],
			"stateMutability": "nonpayable",
			"type": "function"
		}
	]
}